{
  "contractName": "Tender",
  "abi": [
    {
      "inputs": [],
      "stateMutability": "nonpayable",
      "type": "constructor"
    },
    {
      "anonymous": false,
      "inputs": [
        {
          "indexed": true,
          "internalType": "address",
          "name": "contractor",
          "type": "address"
        },
        {
          "indexed": false,
          "internalType": "string",
          "name": "name",
          "type": "string"
        }
      ],
      "name": "ContractorAdded",
      "type": "event"
    },
    {
      "anonymous": false,
      "inputs": [
        {
          "indexed": true,
          "internalType": "address",
          "name": "contractor",
          "type": "address"
        }
      ],
      "name": "ContractorApproved",
      "type": "event"
    },
    {
      "anonymous": false,
      "inputs": [
        {
          "indexed": true,
          "internalType": "address",
          "name": "contractor",
          "type": "address"
        }
      ],
      "name": "ContractorRejected",
      "type": "event"
    },
    {
      "anonymous": false,
      "inputs": [
        {
          "indexed": true,
          "internalType": "address",
          "name": "contractor",
          "type": "address"
        }
      ],
      "name": "ContractorRevoked",
      "type": "event"
    },
    {
      "anonymous": false,
      "inputs": [
        {
          "indexed": true,
          "internalType": "address",
          "name": "contractor",
          "type": "address"
        },
        {
          "indexed": false,
          "internalType": "enum AccessControl.Status",
          "name": "status",
          "type": "uint8"
        }
      ],
      "name": "ContractorStatusChange",
      "type": "event"
    },
    {
      "anonymous": false,
      "inputs": [
        {
          "indexed": true,
          "internalType": "address",
          "name": "contractor",
          "type": "address"
        },
        {
          "indexed": false,
          "internalType": "uint256",
          "name": "documentId",
          "type": "uint256"
        }
      ],
      "name": "DocumentApproved",
      "type": "event"
    },
    {
      "anonymous": false,
      "inputs": [
        {
          "indexed": true,
          "internalType": "address",
          "name": "contractor",
          "type": "address"
        },
        {
          "indexed": false,
          "internalType": "uint256",
          "name": "documentId",
          "type": "uint256"
        },
        {
          "indexed": false,
          "internalType": "string",
          "name": "rejectReason",
          "type": "string"
        }
      ],
      "name": "DocumentRejected",
      "type": "event"
    },
    {
      "anonymous": false,
      "inputs": [
        {
          "indexed": true,
          "internalType": "address",
          "name": "contractor",
          "type": "address"
        },
        {
          "indexed": false,
          "internalType": "uint256",
          "name": "documentId",
          "type": "uint256"
        }
      ],
      "name": "DocumentRevoked",
      "type": "event"
    },
    {
      "anonymous": false,
      "inputs": [
        {
          "indexed": true,
          "internalType": "address",
          "name": "contractor",
          "type": "address"
        },
        {
          "indexed": false,
          "internalType": "uint256",
          "name": "documentId",
          "type": "uint256"
        },
        {
          "indexed": false,
          "internalType": "string",
          "name": "link",
          "type": "string"
        },
        {
          "indexed": false,
          "internalType": "uint256",
          "name": "expirationDate",
          "type": "uint256"
        },
        {
          "indexed": false,
          "internalType": "enum AccessControl.Status",
          "name": "status",
          "type": "uint8"
        },
        {
          "indexed": false,
          "internalType": "enum AccessControl.Type",
          "name": "documentType",
          "type": "uint8"
        }
      ],
      "name": "DocumentUploaded",
      "type": "event"
    },
    {
      "inputs": [
        {
          "internalType": "address",
          "name": "",
          "type": "address"
        }
      ],
      "name": "contractors",
      "outputs": [
        {
          "internalType": "address",
          "name": "contractor",
          "type": "address"
        },
        {
          "internalType": "string",
          "name": "name",
          "type": "string"
        },
        {
          "internalType": "enum AccessControl.Status",
          "name": "status",
          "type": "uint8"
        }
      ],
      "stateMutability": "view",
      "type": "function"
    },
    {
      "inputs": [
        {
          "internalType": "uint256",
          "name": "",
          "type": "uint256"
        }
      ],
      "name": "documents",
      "outputs": [
        {
          "internalType": "uint256",
          "name": "documentId",
          "type": "uint256"
        },
        {
          "internalType": "string",
          "name": "link",
          "type": "string"
        },
        {
          "internalType": "uint256",
          "name": "expirationDate",
          "type": "uint256"
        },
        {
          "internalType": "enum AccessControl.Status",
          "name": "status",
          "type": "uint8"
        },
        {
          "internalType": "enum AccessControl.Type",
          "name": "documentType",
          "type": "uint8"
        },
        {
          "internalType": "address",
          "name": "uploadedBy",
          "type": "address"
        },
        {
          "internalType": "string",
          "name": "rejectReason",
          "type": "string"
        }
      ],
      "stateMutability": "view",
      "type": "function"
    },
    {
      "inputs": [],
      "name": "owner",
      "outputs": [
        {
          "internalType": "address",
          "name": "",
          "type": "address"
        }
      ],
      "stateMutability": "view",
      "type": "function"
    },
    {
      "inputs": [
        {
          "internalType": "address",
          "name": "contractor",
          "type": "address"
        }
      ],
      "name": "getContractor",
      "outputs": [
        {
          "components": [
            {
              "internalType": "address",
              "name": "contractor",
              "type": "address"
            },
            {
              "internalType": "string",
              "name": "name",
              "type": "string"
            },
            {
              "internalType": "enum AccessControl.Status",
              "name": "status",
              "type": "uint8"
            }
          ],
          "internalType": "struct AccessControl.Contractor",
          "name": "",
          "type": "tuple"
        }
      ],
      "stateMutability": "view",
      "type": "function"
    },
    {
      "inputs": [
        {
          "internalType": "string",
          "name": "name",
          "type": "string"
        }
      ],
      "name": "addContractor",
      "outputs": [],
      "stateMutability": "nonpayable",
      "type": "function"
    },
    {
      "inputs": [
        {
          "internalType": "address",
          "name": "contractor",
          "type": "address"
        }
      ],
      "name": "rejectContractor",
      "outputs": [],
      "stateMutability": "nonpayable",
      "type": "function"
    },
    {
      "inputs": [
        {
          "internalType": "address",
          "name": "contractor",
          "type": "address"
        }
      ],
      "name": "revokeContractor",
      "outputs": [],
      "stateMutability": "nonpayable",
      "type": "function"
    },
    {
      "inputs": [
        {
          "internalType": "string",
          "name": "link",
          "type": "string"
        },
        {
          "internalType": "uint256",
          "name": "expirationDate",
          "type": "uint256"
        },
        {
          "internalType": "enum AccessControl.Type",
          "name": "documentType",
          "type": "uint8"
        }
      ],
      "name": "uploadDocument",
      "outputs": [],
      "stateMutability": "nonpayable",
      "type": "function"
    },
    {
      "inputs": [
        {
          "internalType": "address",
          "name": "contractor",
          "type": "address"
        },
        {
          "internalType": "uint256",
          "name": "documentId",
          "type": "uint256"
        }
      ],
      "name": "approveDocument",
      "outputs": [],
      "stateMutability": "nonpayable",
      "type": "function"
    },
    {
      "inputs": [
        {
          "internalType": "address",
          "name": "contractor",
          "type": "address"
        },
        {
          "internalType": "uint256",
          "name": "documentId",
          "type": "uint256"
        },
        {
          "internalType": "string",
          "name": "rejectReason",
          "type": "string"
        }
      ],
      "name": "rejectDocument",
      "outputs": [],
      "stateMutability": "nonpayable",
      "type": "function"
    },
    {
      "inputs": [
        {
          "internalType": "address",
          "name": "contractor",
          "type": "address"
        },
        {
          "internalType": "uint256",
          "name": "documentId",
          "type": "uint256"
        }
      ],
      "name": "revokeDocument",
      "outputs": [],
      "stateMutability": "nonpayable",
      "type": "function"
    }
  ],
  "bytecode": "0x608060405234801561000f575f80fd5b503360015f6101000a81548173ffffffffffffffffffffffffffffffffffffffff021916908373ffffffffffffffffffffffffffffffffffffffff1602179055506123e38061005d5f395ff3fe608060405234801561000f575f80fd5b50600436106100a7575f3560e01c80638da5cb5b1161006f5780638da5cb5b1461014b578063a357ec9c14610169578063c2ed2b0514610185578063da75cb11146101bb578063e35569a6146101d7578063fd42c46714610209576100a7565b8063079fc822146100ab5780632ad680fd146100c75780633a9acd04146100e35780636f6e8df0146101135780637b9d553d1461012f575b5f80fd5b6100c560048036038101906100c09190611810565b610225565b005b6100e160048036038101906100dc919061187c565b610435565b005b6100fd60048036038101906100f891906118ba565b610620565b60405161010a9190611a2e565b60405180910390f35b61012d60048036038101906101289190611aab565b6107dd565b005b610149600480360381019061014491906118ba565b610a06565b005b610153610bcf565b6040516101609190611b05565b60405180910390f35b610183600480360381019061017e91906118ba565b610bf4565b005b61019f600480360381019061019a9190611b1e565b610dbd565b6040516101b29796959493929190611bf5565b60405180910390f35b6101d560048036038101906101d0919061187c565b610f40565b005b6101f160048036038101906101ec91906118ba565b61112b565b60405161020093929190611c70565b60405180910390f35b610223600480360381019061021e9190611ccf565b611202565b005b60015f9054906101000a900473ffffffffffffffffffffffffffffffffffffffff1673ffffffffffffffffffffffffffffffffffffffff163373ffffffffffffffffffffffffffffffffffffffff16146102b4576040517f08c379a00000000000000000000000000000000000000000000000000000000081526004016102ab90611db0565b60405180910390fd5b6102bd83611464565b6102fc576040517f08c379a00000000000000000000000000000000000000000000000000000000081526004016102f390611e18565b60405180910390fd5b5f600381111561030f5761030e61196e565b5b60035f8481526020019081526020015f206003015f9054906101000a900460ff1660038111156103425761034161196e565b5b14610382576040517f08c379a000000000000000000000000000000000000000000000000000000000815260040161037990611e80565b60405180910390fd5b600260035f8481526020019081526020015f206003015f6101000a81548160ff021916908360038111156103b9576103b861196e565b5b02179055508060035f8481526020019081526020015f2060040190816103df9190612098565b508273ffffffffffffffffffffffffffffffffffffffff167fea3690d1aa949c829d58e4b82f2d90370e2e2334a623f566c527fcda779b39b18383604051610428929190612167565b60405180910390a2505050565b60015f9054906101000a900473ffffffffffffffffffffffffffffffffffffffff1673ffffffffffffffffffffffffffffffffffffffff163373ffffffffffffffffffffffffffffffffffffffff16146104c4576040517f08c379a00000000000000000000000000000000000000000000000000000000081526004016104bb90611db0565b60405180910390fd5b6104cd82611464565b61050c576040517f08c379a000000000000000000000000000000000000000000000000000000000815260040161050390611e18565b60405180910390fd5b5f600381111561051f5761051e61196e565b5b60035f8381526020019081526020015f206003015f9054906101000a900460ff1660038111156105525761055161196e565b5b14610592576040517f08c379a000000000000000000000000000000000000000000000000000000000815260040161058990611e80565b60405180910390fd5b600160035f8381526020019081526020015f206003015f6101000a81548160ff021916908360038111156105c9576105c861196e565b5b02179055508173ffffffffffffffffffffffffffffffffffffffff167f70894048a3824f9775f73ed273e7a91ca22d62b2d4ac51557e102040cc5a08db826040516106149190612195565b60405180910390a25050565b6106286115ef565b61063182611464565b610670576040517f08c379a000000000000000000000000000000000000000000000000000000000815260040161066790611e18565b60405180910390fd5b60025f8373ffffffffffffffffffffffffffffffffffffffff1673ffffffffffffffffffffffffffffffffffffffff1681526020019081526020015f206040518060600160405290815f82015f9054906101000a900473ffffffffffffffffffffffffffffffffffffffff1673ffffffffffffffffffffffffffffffffffffffff1673ffffffffffffffffffffffffffffffffffffffff16815260200160018201805461071c90611ecb565b80601f016020809104026020016040519081016040528092919081815260200182805461074890611ecb565b80156107935780601f1061076a57610100808354040283529160200191610793565b820191905f5260205f20905b81548152906001019060200180831161077657829003601f168201915b50505050508152602001600282015f9054906101000a900460ff1660038111156107c0576107bf61196e565b5b60038111156107d2576107d161196e565b5b815250509050919050565b6107e633611464565b15610826576040517f08c379a000000000000000000000000000000000000000000000000000000000815260040161081d906121f8565b60405180910390fd5b60405180606001604052803373ffffffffffffffffffffffffffffffffffffffff16815260200183838080601f0160208091040260200160405190810160405280939291908181526020018383808284375f81840152601f19601f8201169050808301925050505050505081526020015f60038111156108a9576108a861196e565b5b81525060025f3373ffffffffffffffffffffffffffffffffffffffff1673ffffffffffffffffffffffffffffffffffffffff1681526020019081526020015f205f820151815f015f6101000a81548173ffffffffffffffffffffffffffffffffffffffff021916908373ffffffffffffffffffffffffffffffffffffffff16021790555060208201518160010190816109429190612098565b506040820151816002015f6101000a81548160ff0219169083600381111561096d5761096c61196e565b5b02179055509050503373ffffffffffffffffffffffffffffffffffffffff167f3fca97b0a9a68341d82a7abfd38c3bb25ffa4e2f65c768140668f02290f3444360025f3373ffffffffffffffffffffffffffffffffffffffff1673ffffffffffffffffffffffffffffffffffffffff1681526020019081526020015f206001016040516109fa9190612297565b60405180910390a25050565b60015f9054906101000a900473ffffffffffffffffffffffffffffffffffffffff1673ffffffffffffffffffffffffffffffffffffffff163373ffffffffffffffffffffffffffffffffffffffff1614610a95576040517f08c379a0000000000000000000000000000000000000000000000000000000008152600401610a8c90611db0565b60405180910390fd5b610a9e81611464565b610add576040517f08c379a0000000000000000000000000000000000000000000000000000000008152600401610ad490611e18565b60405180910390fd5b60016003811115610af157610af061196e565b5b610afa826114fa565b6003811115610b0c57610b0b61196e565b5b14610b15575f80fd5b600380811115610b2857610b2761196e565b5b60025f8373ffffffffffffffffffffffffffffffffffffffff1673ffffffffffffffffffffffffffffffffffffffff1681526020019081526020015f206002015f9054906101000a900460ff166003811115610b8757610b8661196e565b5b50508073ffffffffffffffffffffffffffffffffffffffff167fd85de6b4b4652fbe4811bb998a2d5d38e57a8a671f91d9b57462ae40fe91fdb960405160405180910390a250565b60015f9054906101000a900473ffffffffffffffffffffffffffffffffffffffff1681565b60015f9054906101000a900473ffffffffffffffffffffffffffffffffffffffff1673ffffffffffffffffffffffffffffffffffffffff163373ffffffffffffffffffffffffffffffffffffffff1614610c83576040517f08c379a0000000000000000000000000000000000000000000000000000000008152600401610c7a90611db0565b60405180910390fd5b610c8c81611464565b610ccb576040517f08c379a0000000000000000000000000000000000000000000000000000000008152600401610cc290611e18565b60405180910390fd5b5f6003811115610cde57610cdd61196e565b5b610ce7826114fa565b6003811115610cf957610cf861196e565b5b14610d02575f80fd5b60026003811115610d1657610d1561196e565b5b60025f8373ffffffffffffffffffffffffffffffffffffffff1673ffffffffffffffffffffffffffffffffffffffff1681526020019081526020015f206002015f9054906101000a900460ff166003811115610d7557610d7461196e565b5b50508073ffffffffffffffffffffffffffffffffffffffff167f281b9ce7985fd8950ac035eb1c14a3658b4539d89d1f0a03bad9cd7d8b337cef60405160405180910390a250565b6003602052805f5260405f205f91509050805f015490806001018054610de290611ecb565b80601f0160208091040260200160405190810160405280929190818152602001828054610e0e90611ecb565b8015610e595780601f10610e3057610100808354040283529160200191610e59565b820191905f5260205f20905b815481529060010190602001808311610e3c57829003601f168201915b505050505090806002015490806003015f9054906101000a900460ff16908060030160019054906101000a900460ff16908060030160029054906101000a900473ffffffffffffffffffffffffffffffffffffffff1690806004018054610ebf90611ecb565b80601f0160208091040260200160405190810160405280929190818152602001828054610eeb90611ecb565b8015610f365780601f10610f0d57610100808354040283529160200191610f36565b820191905f5260205f20905b815481529060010190602001808311610f1957829003601f168201915b5050505050905087565b60015f9054906101000a900473ffffffffffffffffffffffffffffffffffffffff1673ffffffffffffffffffffffffffffffffffffffff163373ffffffffffffffffffffffffffffffffffffffff1614610fcf576040517f08c379a0000000000000000000000000000000000000000000000000000000008152600401610fc690611db0565b60405180910390fd5b610fd882611464565b611017576040517f08c379a000000000000000000000000000000000000000000000000000000000815260040161100e90611e18565b60405180910390fd5b6001600381111561102b5761102a61196e565b5b60035f8381526020019081526020015f206003015f9054906101000a900460ff16600381111561105e5761105d61196e565b5b1461109e576040517f08c379a000000000000000000000000000000000000000000000000000000000815260040161109590612301565b60405180910390fd5b6003805f8381526020019081526020015f206003015f6101000a81548160ff021916908360038111156110d4576110d361196e565b5b02179055508173ffffffffffffffffffffffffffffffffffffffff167f801fb556c093d7ec673027374a52341397311763d15e5a454d1fd58690d4ae518260405161111f9190612195565b60405180910390a25050565b6002602052805f5260405f205f91509050805f015f9054906101000a900473ffffffffffffffffffffffffffffffffffffffff169080600101805461116f90611ecb565b80601f016020809104026020016040519081016040528092919081815260200182805461119b90611ecb565b80156111e65780601f106111bd576101008083540402835291602001916111e6565b820191905f5260205f20905b8154815290600101906020018083116111c957829003601f168201915b505050505090806002015f9054906101000a900460ff16905083565b61120b33611464565b61124a576040517f08c379a000000000000000000000000000000000000000000000000000000000815260040161124190611e18565b60405180910390fd5b61125333611597565b611292576040517f08c379a00000000000000000000000000000000000000000000000000000000081526004016112899061238f565b60405180910390fd5b61129b5f6115cf565b5f6112a55f6115e3565b90506040518060e0016040528082815260200186868080601f0160208091040260200160405190810160405280939291908181526020018383808284375f81840152601f19601f8201169050808301925050505050505081526020018481526020015f600381111561131a5761131961196e565b5b81526020018360038111156113325761133161196e565b5b81526020013373ffffffffffffffffffffffffffffffffffffffff16815260200160405180602001604052805f81525081525060035f8381526020019081526020015f205f820151815f015560208201518160010190816113939190612098565b50604082015181600201556060820151816003015f6101000a81548160ff021916908360038111156113c8576113c761196e565b5b021790555060808201518160030160016101000a81548160ff021916908360038111156113f8576113f761196e565b5b021790555060a08201518160030160026101000a81548173ffffffffffffffffffffffffffffffffffffffff021916908373ffffffffffffffffffffffffffffffffffffffff16021790555060c08201518160040190816114599190612098565b509050505050505050565b5f8073ffffffffffffffffffffffffffffffffffffffff1660025f8473ffffffffffffffffffffffffffffffffffffffff1673ffffffffffffffffffffffffffffffffffffffff1681526020019081526020015f205f015f9054906101000a900473ffffffffffffffffffffffffffffffffffffffff1673ffffffffffffffffffffffffffffffffffffffff1614159050919050565b5f61150482611464565b611543576040517f08c379a000000000000000000000000000000000000000000000000000000000815260040161153a90611e18565b60405180910390fd5b60025f8373ffffffffffffffffffffffffffffffffffffffff1673ffffffffffffffffffffffffffffffffffffffff1681526020019081526020015f206002015f9054906101000a900460ff169050919050565b5f600160038111156115ac576115ab61196e565b5b6115b5836114fa565b60038111156115c7576115c661196e565b5b149050919050565b6001815f015f828254019250508190555050565b5f815f01549050919050565b60405180606001604052805f73ffffffffffffffffffffffffffffffffffffffff168152602001606081526020015f60038111156116305761162f61196e565b5b81525090565b5f604051905090565b5f80fd5b5f80fd5b5f73ffffffffffffffffffffffffffffffffffffffff82169050919050565b5f61167082611647565b9050919050565b61168081611666565b811461168a575f80fd5b50565b5f8135905061169b81611677565b92915050565b5f819050919050565b6116b3816116a1565b81146116bd575f80fd5b50565b5f813590506116ce816116aa565b92915050565b5f80fd5b5f80fd5b5f601f19601f8301169050919050565b7f4e487b71000000000000000000000000000000000000000000000000000000005f52604160045260245ffd5b611722826116dc565b810181811067ffffffffffffffff82111715611741576117406116ec565b5b80604052505050565b5f611753611636565b905061175f8282611719565b919050565b5f67ffffffffffffffff82111561177e5761177d6116ec565b5b611787826116dc565b9050602081019050919050565b828183375f83830152505050565b5f6117b46117af84611764565b61174a565b9050828152602081018484840111156117d0576117cf6116d8565b5b6117db848285611794565b509392505050565b5f82601f8301126117f7576117f66116d4565b5b81356118078482602086016117a2565b91505092915050565b5f805f606084860312156118275761182661163f565b5b5f6118348682870161168d565b9350506020611845868287016116c0565b925050604084013567ffffffffffffffff81111561186657611865611643565b5b611872868287016117e3565b9150509250925092565b5f80604083850312156118925761189161163f565b5b5f61189f8582860161168d565b92505060206118b0858286016116c0565b9150509250929050565b5f602082840312156118cf576118ce61163f565b5b5f6118dc8482850161168d565b91505092915050565b6118ee81611666565b82525050565b5f81519050919050565b5f82825260208201905092915050565b5f5b8381101561192b578082015181840152602081019050611910565b5f8484015250505050565b5f611940826118f4565b61194a81856118fe565b935061195a81856020860161190e565b611963816116dc565b840191505092915050565b7f4e487b71000000000000000000000000000000000000000000000000000000005f52602160045260245ffd5b600481106119ac576119ab61196e565b5b50565b5f8190506119bc8261199b565b919050565b5f6119cb826119af565b9050919050565b6119db816119c1565b82525050565b5f606083015f8301516119f65f8601826118e5565b5060208301518482036020860152611a0e8282611936565b9150506040830151611a2360408601826119d2565b508091505092915050565b5f6020820190508181035f830152611a4681846119e1565b905092915050565b5f80fd5b5f80fd5b5f8083601f840112611a6b57611a6a6116d4565b5b8235905067ffffffffffffffff811115611a8857611a87611a4e565b5b602083019150836001820283011115611aa457611aa3611a52565b5b9250929050565b5f8060208385031215611ac157611ac061163f565b5b5f83013567ffffffffffffffff811115611ade57611add611643565b5b611aea85828601611a56565b92509250509250929050565b611aff81611666565b82525050565b5f602082019050611b185f830184611af6565b92915050565b5f60208284031215611b3357611b3261163f565b5b5f611b40848285016116c0565b91505092915050565b611b52816116a1565b82525050565b5f82825260208201905092915050565b5f611b72826118f4565b611b7c8185611b58565b9350611b8c81856020860161190e565b611b95816116dc565b840191505092915050565b611ba9816119c1565b82525050565b60048110611bc057611bbf61196e565b5b50565b5f819050611bd082611baf565b919050565b5f611bdf82611bc3565b9050919050565b611bef81611bd5565b82525050565b5f60e082019050611c085f83018a611b49565b8181036020830152611c1a8189611b68565b9050611c296040830188611b49565b611c366060830187611ba0565b611c436080830186611be6565b611c5060a0830185611af6565b81810360c0830152611c628184611b68565b905098975050505050505050565b5f606082019050611c835f830186611af6565b8181036020830152611c958185611b68565b9050611ca46040830184611ba0565b949350505050565b60048110611cb8575f80fd5b50565b5f81359050611cc981611cac565b92915050565b5f805f8060608587031215611ce757611ce661163f565b5b5f85013567ffffffffffffffff811115611d0457611d03611643565b5b611d1087828801611a56565b94509450506020611d23878288016116c0565b9250506040611d3487828801611cbb565b91505092959194509250565b7f4f6e6c7920746865206f776e65722063616e20616363657373207468697320665f8201527f756e6374696f6e2e000000000000000000000000000000000000000000000000602082015250565b5f611d9a602883611b58565b9150611da582611d40565b604082019050919050565b5f6020820190508181035f830152611dc781611d8e565b9050919050565b7f436f6e74726163746f7220646f6573206e6f74206578697374000000000000005f82015250565b5f611e02601983611b58565b9150611e0d82611dce565b602082019050919050565b5f6020820190508181035f830152611e2f81611df6565b9050919050565b7f446f63756d656e74206973206e6f742070656e64696e6720617070726f76616c5f82015250565b5f611e6a602083611b58565b9150611e7582611e36565b602082019050919050565b5f6020820190508181035f830152611e9781611e5e565b9050919050565b7f4e487b71000000000000000000000000000000000000000000000000000000005f52602260045260245ffd5b5f6002820490506001821680611ee257607f821691505b602082108103611ef557611ef4611e9e565b5b50919050565b5f819050815f5260205f209050919050565b5f6020601f8301049050919050565b5f82821b905092915050565b5f60088302611f577fffffffffffffffffffffffffffffffffffffffffffffffffffffffffffffffff82611f1c565b611f618683611f1c565b95508019841693508086168417925050509392505050565b5f819050919050565b5f611f9c611f97611f92846116a1565b611f79565b6116a1565b9050919050565b5f819050919050565b611fb583611f82565b611fc9611fc182611fa3565b848454611f28565b825550505050565b5f90565b611fdd611fd1565b611fe8818484611fac565b505050565b5b8181101561200b576120005f82611fd5565b600181019050611fee565b5050565b601f8211156120505761202181611efb565b61202a84611f0d565b81016020851015612039578190505b61204d61204585611f0d565b830182611fed565b50505b505050565b5f82821c905092915050565b5f6120705f1984600802612055565b1980831691505092915050565b5f6120888383612061565b9150826002028217905092915050565b6120a1826118f4565b67ffffffffffffffff8111156120ba576120b96116ec565b5b6120c48254611ecb565b6120cf82828561200f565b5f60209050601f831160018114612100575f84156120ee578287015190505b6120f8858261207d565b86555061215f565b601f19841661210e86611efb565b5f5b8281101561213557848901518255600182019150602085019450602081019050612110565b86831015612152578489015161214e601f891682612061565b8355505b6001600288020188555050505b505050505050565b5f60408201905061217a5f830185611b49565b818103602083015261218c8184611b68565b90509392505050565b5f6020820190506121a85f830184611b49565b92915050565b7f436f6e74726163746f7220616c726561647920657869737473000000000000005f82015250565b5f6121e2601983611b58565b91506121ed826121ae565b602082019050919050565b5f6020820190508181035f83015261220f816121d6565b9050919050565b5f815461222281611ecb565b61222c8186611b58565b9450600182165f8114612246576001811461225c5761228e565b60ff19831686528115156020028601935061228e565b61226585611efb565b5f5b8381101561228657815481890152600182019150602081019050612267565b808801955050505b50505092915050565b5f6020820190508181035f8301526122af8184612216565b905092915050565b7f446f63756d656e74206973206e6f7420617070726f76656400000000000000005f82015250565b5f6122eb601883611b58565b91506122f6826122b7565b602082019050919050565b5f6020820190508181035f830152612318816122df565b9050919050565b7f436f6e74726163746f72206d75737420626520617070726f76656420666972735f8201527f7400000000000000000000000000000000000000000000000000000000000000602082015250565b5f612379602183611b58565b91506123848261231f565b604082019050919050565b5f6020820190508181035f8301526123a68161236d565b905091905056fea264697066735822122051c954cfd3238fa6a6dc44e51334bb37790d53cd64719eefac6e42ffb699758464736f6c63430008140033",
  "immutableReferences": {},
  "source": "// SPDX-License-Identifier: MIT\npragma solidity ^0.8.0;\n\nimport \"@openzeppelin/contracts/utils/Counters.sol\";\n\ncontract AccessControl {\n\n    using Counters for Counters.Counter;\n    Counters.Counter private _counter;\n\n    address public owner;\n\n    enum Status {\n        PendingApproval,\n        Approved,\n        Rejected,\n        Revoked\n    }\n\n    enum Type {\n        BusinessLicense,\n        InsuranceCertificate,\n        TrainingCertificate,\n        ProjectDocument    \n    }\n\n    struct Contractor {\n        address contractor;\n        string name;\n        Status status;\n    }\n\n    struct Document {\n        uint documentId;\n        string link;\n        uint expirationDate;\n        Status status;\n        Type documentType;\n        address uploadedBy;\n        string rejectReason;\n    }\n\n    mapping(address => Contractor) public contractors;\n    mapping(uint => Document) public documents;\n    \n    modifier onlyOwner() {\n        require(msg.sender == owner, \"Only the owner can access this function.\");\n        _;\n    }\n    \n    constructor() {\n        owner = msg.sender;\n    }\n\n    event ContractorAdded(address indexed contractor, string name);\n    event ContractorApproved(address indexed contractor);\n    event ContractorRejected(address indexed contractor);\n    event ContractorRevoked(address indexed contractor);\n    event ContractorStatusChange(address indexed contractor, Status status);\n    event DocumentUploaded(address indexed contractor, uint256 documentId, string link, uint256 expirationDate, Status status, Type documentType);\n    event DocumentApproved(address indexed contractor, uint256 documentId);\n    event DocumentRejected(address indexed contractor, uint256 documentId, string rejectReason);\n    event DocumentRevoked(address indexed contractor, uint256 documentId);\n\n\n    function isContractor(address contractor) private view returns(bool){\n        return contractors[contractor].contractor != address(0);\n    }\n\n    function getContractor(address contractor) external view returns(Contractor memory){\n        require(isContractor(contractor), \"Contractor does not exist\");\n        return contractors[contractor];\n    }\n\n    function changeContractorStatus(address contractor, Status status) internal onlyOwner {\n        require(isContractor(contractor), \"Contractor does not exist\");\n        contractors[contractor].status == status;\n\n        emit ContractorStatusChange(contractors[contractor].contractor, contractors[contractor].status);\n    }\n\n    function getContractorStatus(address contractor) private view returns (Status) {\n        require(isContractor(contractor), \"Contractor does not exist\");\n        return contractors[contractor].status;\n    }\n    \n    function addContractor(string calldata name) external {\n        require(!isContractor(msg.sender), \"Contractor already exists\");\n        contractors[msg.sender] = Contractor(msg.sender, name, Status.PendingApproval);\n        \n        emit ContractorAdded(msg.sender, contractors[msg.sender].name);\n    }\n\n    function approveContractor(address contractor) internal onlyOwner {\n        require(isContractor(contractor), \"Contractor does not exist\");\n        require(getContractorStatus(contractor) == Status.PendingApproval, \"Contractor is not pending approval\");\n        \n        changeContractorStatus(contractor, Status.Approved);\n\n        emit ContractorApproved(contractors[contractor].contractor);\n    }\n\n    function rejectContractor(address contractor) external onlyOwner {\n        require(isContractor(contractor), \"Contractor does not exist\");\n        require(getContractorStatus(contractor) == Status.PendingApproval);\n\n        contractors[contractor].status == Status.Rejected;\n        \n        emit ContractorRejected(contractor);\n    }\n    \n    function revokeContractor(address contractor) external onlyOwner {\n        require(isContractor(contractor), \"Contractor does not exist\");\n        require(getContractorStatus(contractor) == Status.Approved);\n\n        contractors[contractor].status == Status.Revoked;\n        \n        emit ContractorRevoked(contractor);\n    }\n\n    function isContractorApproved(address contractor) private view returns(bool){\n        return getContractorStatus(contractor) == Status.Approved;\n    } \n\n    function uploadDocument(string calldata link, uint expirationDate, Type documentType) external {\n        require(isContractor(msg.sender), \"Contractor does not exist\");\n        require(isContractorApproved(msg.sender), \"Contractor must be approved first\");\n\n        _counter.increment();\n        uint256 documentId = _counter.current();\n\n        documents[documentId] = Document(\n            documentId,\n            link,\n            expirationDate,\n            Status.PendingApproval,\n            documentType,\n            msg.sender,\n            \"\" // Empty rejectReason\n        );\n    }\n\n    function approveDocument(address contractor, uint documentId) external onlyOwner {\n        require(isContractor(contractor), \"Contractor does not exist\");\n        require(documents[documentId].status == Status.PendingApproval, \"Document is not pending approval\");\n\n        documents[documentId].status = Status.Approved;\n\n        emit DocumentApproved(contractor, documentId);\n    }\n\n    function rejectDocument(address contractor, uint documentId, string memory rejectReason) external onlyOwner {\n        require(isContractor(contractor), \"Contractor does not exist\");\n        require(documents[documentId].status == Status.PendingApproval, \"Document is not pending approval\");\n\n        documents[documentId].status = Status.Rejected;\n        documents[documentId].rejectReason = rejectReason;\n\n        emit DocumentRejected(contractor, documentId, rejectReason);\n    }\n\n    function revokeDocument(address contractor, uint documentId) external onlyOwner {\n        require(isContractor(contractor), \"Contractor does not exist\");\n        require(documents[documentId].status == Status.Approved, \"Document is not approved\");\n\n        documents[documentId].status = Status.Revoked;\n\n        emit DocumentRevoked(contractor, documentId);\n    }\n\n\n}\n",
  "sourcePath": "C:\\Users\\Turkguven\\Dropbox\\Projects\\BNB-Chain-Practicum\\AccessControl\\contracts\\AccessControl.sol",
  "compiler": {
    "name": "solc",
    "version": "0.8.20+commit.a1b79de6.Emscripten.clang"
  },
  "schemaVersion": "3.4.14",
  "updatedAt": "2023-06-05T05:06:32.259Z",
  "devdoc": {
    "kind": "dev",
    "methods": {},
    "version": 1
  },
  "userdoc": {
    "kind": "user",
    "methods": {},
    "version": 1
  }
}