{
  "contractName": "Tender",
  "abi": [
    {
      "inputs": [],
      "stateMutability": "nonpayable",
      "type": "constructor"
    },
    {
      "anonymous": false,
      "inputs": [
        {
          "indexed": true,
          "internalType": "uint256",
          "name": "bidId",
          "type": "uint256"
        },
        {
          "indexed": true,
          "internalType": "address",
          "name": "contractor",
          "type": "address"
        },
        {
          "indexed": false,
          "internalType": "uint256",
          "name": "bidAmount",
          "type": "uint256"
        }
      ],
      "name": "BidAwarded",
      "type": "event"
    },
    {
      "anonymous": false,
      "inputs": [
        {
          "indexed": true,
          "internalType": "uint256",
          "name": "bidId",
          "type": "uint256"
        },
        {
          "indexed": false,
          "internalType": "uint256",
          "name": "amount",
          "type": "uint256"
        },
        {
          "indexed": false,
          "internalType": "uint256",
          "name": "duration",
          "type": "uint256"
        },
        {
          "indexed": true,
          "internalType": "uint256",
          "name": "contractId",
          "type": "uint256"
        }
      ],
      "name": "BidCreated",
      "type": "event"
    },
    {
      "anonymous": false,
      "inputs": [
        {
          "indexed": true,
          "internalType": "uint256",
          "name": "bidId",
          "type": "uint256"
        },
        {
          "indexed": true,
          "internalType": "uint256",
          "name": "contractId",
          "type": "uint256"
        },
        {
          "indexed": false,
          "internalType": "uint256",
          "name": "amount",
          "type": "uint256"
        },
        {
          "indexed": false,
          "internalType": "uint256",
          "name": "duration",
          "type": "uint256"
        }
      ],
      "name": "BidSubmitted",
      "type": "event"
    },
    {
      "anonymous": false,
      "inputs": [
        {
          "indexed": true,
          "internalType": "uint256",
          "name": "bidId",
          "type": "uint256"
        }
      ],
      "name": "BidWithdrawn",
      "type": "event"
    },
    {
      "anonymous": false,
      "inputs": [
        {
          "indexed": true,
          "internalType": "address",
          "name": "contractor",
          "type": "address"
        },
        {
          "indexed": false,
          "internalType": "uint256",
          "name": "paymentAmount",
          "type": "uint256"
        }
      ],
      "name": "BidderPaid",
      "type": "event"
    },
    {
      "anonymous": false,
      "inputs": [
        {
          "indexed": true,
          "internalType": "uint256",
          "name": "contractId",
          "type": "uint256"
        }
      ],
      "name": "ContractCanceled",
      "type": "event"
    },
    {
      "anonymous": false,
      "inputs": [
        {
          "indexed": true,
          "internalType": "uint256",
          "name": "contractId",
          "type": "uint256"
        }
      ],
      "name": "ContractClosed",
      "type": "event"
    },
    {
      "anonymous": false,
      "inputs": [
        {
          "indexed": true,
          "internalType": "uint256",
          "name": "contractId",
          "type": "uint256"
        },
        {
          "indexed": false,
          "internalType": "string",
          "name": "description",
          "type": "string"
        },
        {
          "indexed": false,
          "internalType": "uint256",
          "name": "bidDeadline",
          "type": "uint256"
        },
        {
          "indexed": false,
          "internalType": "uint256",
          "name": "dailyPenaltyPerThousand",
          "type": "uint256"
        },
        {
          "indexed": false,
          "internalType": "uint256",
          "name": "maxPenaltyPercent",
          "type": "uint256"
        }
      ],
      "name": "ContractCreated",
      "type": "event"
    },
    {
      "anonymous": false,
      "inputs": [
        {
          "indexed": true,
          "internalType": "uint256",
          "name": "contractId",
          "type": "uint256"
        },
        {
          "indexed": false,
          "internalType": "enum Tender.ContractStatus",
          "name": "contractStatus",
          "type": "uint8"
        }
      ],
      "name": "ContractStatusChanged",
      "type": "event"
    },
    {
      "anonymous": false,
      "inputs": [
        {
          "indexed": true,
          "internalType": "address",
          "name": "contractor",
          "type": "address"
        },
        {
          "indexed": false,
          "internalType": "string",
          "name": "name",
          "type": "string"
        }
      ],
      "name": "ContractorAdded",
      "type": "event"
    },
    {
      "inputs": [
        {
          "internalType": "uint256",
          "name": "",
          "type": "uint256"
        }
      ],
      "name": "bids",
      "outputs": [
        {
          "internalType": "uint256",
          "name": "bidId",
          "type": "uint256"
        },
        {
          "internalType": "address",
          "name": "contractor",
          "type": "address"
        },
        {
          "internalType": "uint256",
          "name": "amount",
          "type": "uint256"
        },
        {
          "internalType": "uint256",
          "name": "duration",
          "type": "uint256"
        },
        {
          "internalType": "uint256",
          "name": "contractId",
          "type": "uint256"
        },
        {
          "internalType": "enum Tender.BidStatus",
          "name": "bidStatus",
          "type": "uint8"
        }
      ],
      "stateMutability": "view",
      "type": "function",
      "constant": true
    },
    {
      "inputs": [
        {
          "internalType": "address",
          "name": "",
          "type": "address"
        }
      ],
      "name": "contractors",
      "outputs": [
        {
          "internalType": "address",
          "name": "contractor",
          "type": "address"
        },
        {
          "internalType": "string",
          "name": "name",
          "type": "string"
        }
      ],
      "stateMutability": "view",
      "type": "function",
      "constant": true
    },
    {
      "inputs": [
        {
          "internalType": "uint256",
          "name": "",
          "type": "uint256"
        }
      ],
      "name": "contracts",
      "outputs": [
        {
          "internalType": "uint256",
          "name": "contractId",
          "type": "uint256"
        },
        {
          "internalType": "string",
          "name": "description",
          "type": "string"
        },
        {
          "internalType": "uint256",
          "name": "bidDeadline",
          "type": "uint256"
        },
        {
          "internalType": "uint256",
          "name": "bidAmount",
          "type": "uint256"
        },
        {
          "internalType": "uint256",
          "name": "dailyPenaltyPerThousand",
          "type": "uint256"
        },
        {
          "internalType": "uint256",
          "name": "maxPenaltyPercent",
          "type": "uint256"
        },
        {
          "internalType": "address",
          "name": "awardedTo",
          "type": "address"
        },
        {
          "internalType": "enum Tender.ContractStatus",
          "name": "contractStatus",
          "type": "uint8"
        },
        {
          "internalType": "bool",
          "name": "isPaid",
          "type": "bool"
        },
        {
          "internalType": "uint256",
          "name": "plannedDuration",
          "type": "uint256"
        },
        {
          "internalType": "uint256",
          "name": "workStarted",
          "type": "uint256"
        },
        {
          "internalType": "uint256",
          "name": "workCompleted",
          "type": "uint256"
        }
      ],
      "stateMutability": "view",
      "type": "function",
      "constant": true
    },
    {
      "inputs": [],
      "name": "owner",
      "outputs": [
        {
          "internalType": "address",
          "name": "",
          "type": "address"
        }
      ],
      "stateMutability": "view",
      "type": "function",
      "constant": true
    },
    {
      "inputs": [
        {
          "internalType": "address",
          "name": "_newOwner",
          "type": "address"
        }
      ],
      "name": "setOwner",
      "outputs": [],
      "stateMutability": "nonpayable",
      "type": "function"
    },
    {
      "inputs": [
        {
          "internalType": "string",
          "name": "name",
          "type": "string"
        }
      ],
      "name": "addContractor",
      "outputs": [],
      "stateMutability": "nonpayable",
      "type": "function"
    },
    {
      "inputs": [
        {
          "internalType": "string",
          "name": "description",
          "type": "string"
        },
        {
          "internalType": "uint256",
          "name": "bidDeadline",
          "type": "uint256"
        },
        {
          "internalType": "uint256",
          "name": "dailyPenaltyPerThousand",
          "type": "uint256"
        },
        {
          "internalType": "uint256",
          "name": "maxPenaltyPercent",
          "type": "uint256"
        }
      ],
      "name": "createContract",
      "outputs": [],
      "stateMutability": "nonpayable",
      "type": "function"
    },
    {
      "inputs": [
        {
          "internalType": "uint256",
          "name": "contractId",
          "type": "uint256"
        }
      ],
      "name": "cancelContract",
      "outputs": [],
      "stateMutability": "nonpayable",
      "type": "function"
    },
    {
      "inputs": [
        {
          "internalType": "uint256",
          "name": "contractId",
          "type": "uint256"
        }
      ],
      "name": "closeContract",
      "outputs": [],
      "stateMutability": "nonpayable",
      "type": "function"
    },
    {
      "inputs": [
        {
          "internalType": "uint256",
          "name": "amount",
          "type": "uint256"
        },
        {
          "internalType": "uint256",
          "name": "duration",
          "type": "uint256"
        },
        {
          "internalType": "uint256",
          "name": "contractId",
          "type": "uint256"
        }
      ],
      "name": "submitBid",
      "outputs": [],
      "stateMutability": "nonpayable",
      "type": "function"
    },
    {
      "inputs": [
        {
          "internalType": "uint256",
          "name": "bidId",
          "type": "uint256"
        }
      ],
      "name": "withdrawBid",
      "outputs": [],
      "stateMutability": "nonpayable",
      "type": "function"
    },
    {
      "inputs": [
        {
          "internalType": "uint256",
          "name": "bidId",
          "type": "uint256"
        }
      ],
      "name": "awardBid",
      "outputs": [],
      "stateMutability": "nonpayable",
      "type": "function"
    },
    {
      "inputs": [
        {
          "internalType": "uint256",
          "name": "contractId",
          "type": "uint256"
        }
      ],
      "name": "depositContractAmount",
      "outputs": [],
      "stateMutability": "payable",
      "type": "function",
      "payable": true
    },
    {
      "inputs": [
        {
          "internalType": "uint256",
          "name": "contractId",
          "type": "uint256"
        }
      ],
      "name": "startWorkInContract",
      "outputs": [],
      "stateMutability": "nonpayable",
      "type": "function"
    },
    {
      "inputs": [
        {
          "internalType": "uint256",
          "name": "contractId",
          "type": "uint256"
        }
      ],
      "name": "completeWorkInContract",
      "outputs": [],
      "stateMutability": "nonpayable",
      "type": "function"
    },
    {
      "inputs": [
        {
          "internalType": "uint256",
          "name": "contractId",
          "type": "uint256"
        }
      ],
      "name": "payAwardedBid",
      "outputs": [],
      "stateMutability": "nonpayable",
      "type": "function"
    },
    {
      "inputs": [
        {
          "internalType": "uint256",
          "name": "contractId",
          "type": "uint256"
        }
      ],
      "name": "calculatePayment",
      "outputs": [
        {
          "internalType": "uint256",
          "name": "",
          "type": "uint256"
        }
      ],
      "stateMutability": "view",
      "type": "function",
      "constant": true
    },
    {
      "inputs": [],
      "name": "getOpenContracts",
      "outputs": [
        {
          "components": [
            {
              "internalType": "uint256",
              "name": "contractId",
              "type": "uint256"
            },
            {
              "internalType": "string",
              "name": "description",
              "type": "string"
            },
            {
              "internalType": "uint256",
              "name": "bidDeadline",
              "type": "uint256"
            },
            {
              "internalType": "uint256",
              "name": "bidAmount",
              "type": "uint256"
            },
            {
              "internalType": "uint256",
              "name": "dailyPenaltyPerThousand",
              "type": "uint256"
            },
            {
              "internalType": "uint256",
              "name": "maxPenaltyPercent",
              "type": "uint256"
            },
            {
              "internalType": "address",
              "name": "awardedTo",
              "type": "address"
            },
            {
              "internalType": "enum Tender.ContractStatus",
              "name": "contractStatus",
              "type": "uint8"
            },
            {
              "internalType": "uint256[]",
              "name": "bidIds",
              "type": "uint256[]"
            },
            {
              "internalType": "bool",
              "name": "isPaid",
              "type": "bool"
            },
            {
              "internalType": "uint256",
              "name": "plannedDuration",
              "type": "uint256"
            },
            {
              "internalType": "uint256",
              "name": "workStarted",
              "type": "uint256"
            },
            {
              "internalType": "uint256",
              "name": "workCompleted",
              "type": "uint256"
            }
          ],
          "internalType": "struct Tender.Contract[]",
          "name": "",
          "type": "tuple[]"
        }
      ],
      "stateMutability": "view",
      "type": "function",
      "constant": true
    },
    {
      "inputs": [
        {
          "internalType": "uint256",
          "name": "_contractId",
          "type": "uint256"
        }
      ],
      "name": "resetContract",
      "outputs": [],
      "stateMutability": "nonpayable",
      "type": "function"
    },
    {
      "inputs": [],
      "name": "getOwner",
      "outputs": [
        {
          "internalType": "address",
          "name": "",
          "type": "address"
        }
      ],
      "stateMutability": "view",
      "type": "function",
      "constant": true
    },
    {
      "inputs": [
        {
          "internalType": "address",
          "name": "contractor",
          "type": "address"
        }
      ],
      "name": "getContractor",
      "outputs": [
        {
          "components": [
            {
              "internalType": "address",
              "name": "contractor",
              "type": "address"
            },
            {
              "internalType": "string",
              "name": "name",
              "type": "string"
            }
          ],
          "internalType": "struct Tender.Contractor",
          "name": "",
          "type": "tuple"
        }
      ],
      "stateMutability": "view",
      "type": "function",
      "constant": true
    },
    {
      "inputs": [
        {
          "internalType": "uint256",
          "name": "contractId",
          "type": "uint256"
        }
      ],
      "name": "getContract",
      "outputs": [
        {
          "components": [
            {
              "internalType": "uint256",
              "name": "contractId",
              "type": "uint256"
            },
            {
              "internalType": "string",
              "name": "description",
              "type": "string"
            },
            {
              "internalType": "uint256",
              "name": "bidDeadline",
              "type": "uint256"
            },
            {
              "internalType": "uint256",
              "name": "bidAmount",
              "type": "uint256"
            },
            {
              "internalType": "uint256",
              "name": "dailyPenaltyPerThousand",
              "type": "uint256"
            },
            {
              "internalType": "uint256",
              "name": "maxPenaltyPercent",
              "type": "uint256"
            },
            {
              "internalType": "address",
              "name": "awardedTo",
              "type": "address"
            },
            {
              "internalType": "enum Tender.ContractStatus",
              "name": "contractStatus",
              "type": "uint8"
            },
            {
              "internalType": "uint256[]",
              "name": "bidIds",
              "type": "uint256[]"
            },
            {
              "internalType": "bool",
              "name": "isPaid",
              "type": "bool"
            },
            {
              "internalType": "uint256",
              "name": "plannedDuration",
              "type": "uint256"
            },
            {
              "internalType": "uint256",
              "name": "workStarted",
              "type": "uint256"
            },
            {
              "internalType": "uint256",
              "name": "workCompleted",
              "type": "uint256"
            }
          ],
          "internalType": "struct Tender.Contract",
          "name": "",
          "type": "tuple"
        }
      ],
      "stateMutability": "view",
      "type": "function",
      "constant": true
    },
    {
      "inputs": [
        {
          "internalType": "uint256",
          "name": "bidId",
          "type": "uint256"
        }
      ],
      "name": "getBid",
      "outputs": [
        {
          "components": [
            {
              "internalType": "uint256",
              "name": "bidId",
              "type": "uint256"
            },
            {
              "internalType": "address",
              "name": "contractor",
              "type": "address"
            },
            {
              "internalType": "uint256",
              "name": "amount",
              "type": "uint256"
            },
            {
              "internalType": "uint256",
              "name": "duration",
              "type": "uint256"
            },
            {
              "internalType": "uint256",
              "name": "contractId",
              "type": "uint256"
            },
            {
              "internalType": "enum Tender.BidStatus",
              "name": "bidStatus",
              "type": "uint8"
            }
          ],
          "internalType": "struct Tender.Bid",
          "name": "",
          "type": "tuple"
        }
      ],
      "stateMutability": "view",
      "type": "function",
      "constant": true
    },
    {
      "inputs": [],
      "name": "getContractBalance",
      "outputs": [
        {
          "internalType": "uint256",
          "name": "",
          "type": "uint256"
        }
      ],
      "stateMutability": "view",
      "type": "function",
      "constant": true
    },
    {
      "inputs": [
        {
          "internalType": "uint256",
          "name": "_bidId",
          "type": "uint256"
        },
        {
          "internalType": "uint256",
          "name": "_contractId",
          "type": "uint256"
        }
      ],
      "name": "isBidSubmittedToContract",
      "outputs": [
        {
          "internalType": "bool",
          "name": "",
          "type": "bool"
        }
      ],
      "stateMutability": "view",
      "type": "function",
      "constant": true
    },
    {
      "inputs": [
        {
          "internalType": "uint256",
          "name": "_contractId",
          "type": "uint256"
        }
      ],
      "name": "isAlreadyBiddedByContractor",
      "outputs": [
        {
          "internalType": "bool",
          "name": "",
          "type": "bool"
        }
      ],
      "stateMutability": "view",
      "type": "function",
      "constant": true
    }
  ],
  "bytecode": "0x608060405234801561000f575f80fd5b503360025f6101000a81548173ffffffffffffffffffffffffffffffffffffffff021916908373ffffffffffffffffffffffffffffffffffffffff1602179055506153cd8061005d5f395ff3fe608060405260043610610180575f3560e01c80636ebc8c86116100d0578063893d20e811610089578063cab55e9011610063578063cab55e90146105a0578063d0ce7360146105c8578063d595da98146105f0578063e35569a61461061857610180565b8063893d20e8146105105780638c67f63a1461053a5780638da5cb5b1461057657610180565b80636ebc8c86146103f65780636f6e8df0146104325780636f9fb98a1461045a5780637950ce911461048457806382dae284146104ac5780638467f7cb146104e857610180565b80633dfe03b81161013d5780634423c5f1116101175780634423c5f11461030a578063474da79a1461034b5780634bf3395b1461039257806356029cf2146103ba57610180565b80633dfe03b814610290578063416f222a146102ba578063432b8834146102e257610180565b80630eaaf4c81461018457806313af4035146101ac57806314eb9a28146101d457806328047450146101f05780633a9acd04146102185780633c889e6f14610254575b5f80fd5b34801561018f575f80fd5b506101aa60048036038101906101a5919061378a565b610655565b005b3480156101b7575f80fd5b506101d260048036038101906101cd919061380f565b6108bc565b005b6101ee60048036038101906101e9919061378a565b61098e565b005b3480156101fb575f80fd5b506102166004803603810190610211919061378a565b610a90565b005b348015610223575f80fd5b5061023e6004803603810190610239919061380f565b610c4d565b60405161024b919061390d565b60405180910390f35b34801561025f575f80fd5b5061027a6004803603810190610275919061378a565b610dd0565b6040516102879190613a28565b60405180910390f35b34801561029b575f80fd5b506102a4610ef9565b6040516102b19190613d21565b60405180910390f35b3480156102c5575f80fd5b506102e060048036038101906102db9190613d41565b61127d565b005b3480156102ed575f80fd5b506103086004803603810190610303919061378a565b6114ef565b005b348015610315575f80fd5b50610330600480360381019061032b919061378a565b6119f2565b60405161034296959493929190613dbe565b60405180910390f35b348015610356575f80fd5b50610371600480360381019061036c919061378a565b611a55565b6040516103899c9b9a99989796959493929190613e83565b60405180910390f35b34801561039d575f80fd5b506103b860048036038101906103b39190613fa3565b611b6f565b005b3480156103c5575f80fd5b506103e060048036038101906103db919061378a565b611e97565b6040516103ed9190614027565b60405180910390f35b348015610401575f80fd5b5061041c6004803603810190610417919061378a565b61203b565b604051610429919061415d565b60405180910390f35b34801561043d575f80fd5b506104586004803603810190610453919061417d565b61228e565b005b348015610465575f80fd5b5061046e612470565b60405161047b91906141c8565b60405180910390f35b34801561048f575f80fd5b506104aa60048036038101906104a5919061378a565b612477565b005b3480156104b7575f80fd5b506104d260048036038101906104cd91906141e1565b6127a9565b6040516104df9190614027565b60405180910390f35b3480156104f3575f80fd5b5061050e6004803603810190610509919061378a565b6128b8565b005b34801561051b575f80fd5b50610524612a0d565b604051610531919061421f565b60405180910390f35b348015610545575f80fd5b50610560600480360381019061055b919061378a565b612a35565b60405161056d91906141c8565b60405180910390f35b348015610581575f80fd5b5061058a612beb565b604051610597919061421f565b60405180910390f35b3480156105ab575f80fd5b506105c660048036038101906105c1919061378a565b612c10565b005b3480156105d3575f80fd5b506105ee60048036038101906105e9919061378a565b612d7d565b005b3480156105fb575f80fd5b506106166004803603810190610611919061378a565b612f53565b005b348015610623575f80fd5b5061063e6004803603810190610639919061380f565b6130c0565b60405161064c929190614238565b60405180910390f35b61065e33613185565b61069d576040517f08c379a0000000000000000000000000000000000000000000000000000000008152600401610694906142b0565b60405180910390fd5b6106a68161321b565b6106e5576040517f08c379a00000000000000000000000000000000000000000000000000000000081526004016106dc90614318565b60405180910390fd5b5f60038111156106f8576106f761393c565b5b6107018261323a565b60038111156107135761071261393c565b5b14610753576040517f08c379a000000000000000000000000000000000000000000000000000000000815260040161074a906143a6565b60405180910390fd5b61077060055f8381526020019081526020015f20600401546132ab565b6107af576040517f08c379a00000000000000000000000000000000000000000000000000000000081526004016107a690614434565b60405180910390fd5b3373ffffffffffffffffffffffffffffffffffffffff1660055f8381526020019081526020015f206001015f9054906101000a900473ffffffffffffffffffffffffffffffffffffffff1673ffffffffffffffffffffffffffffffffffffffff1614610850576040517f08c379a00000000000000000000000000000000000000000000000000000000081526004016108479061449c565b60405180910390fd5b600360055f8381526020019081526020015f206005015f6101000a81548160ff021916908360038111156108875761088661393c565b5b0217905550807f99319fa1a5fca42d549d4d49989116496775f906f62e0e2ff2ea3c3aacdefa2760405160405180910390a250565b60025f9054906101000a900473ffffffffffffffffffffffffffffffffffffffff1673ffffffffffffffffffffffffffffffffffffffff163373ffffffffffffffffffffffffffffffffffffffff161461094b576040517f08c379a00000000000000000000000000000000000000000000000000000000081526004016109429061452a565b60405180910390fd5b8060025f6101000a81548173ffffffffffffffffffffffffffffffffffffffff021916908373ffffffffffffffffffffffffffffffffffffffff16021790555050565b60025f9054906101000a900473ffffffffffffffffffffffffffffffffffffffff1673ffffffffffffffffffffffffffffffffffffffff163373ffffffffffffffffffffffffffffffffffffffff1614610a1d576040517f08c379a0000000000000000000000000000000000000000000000000000000008152600401610a149061452a565b60405180910390fd5b60045f8281526020019081526020015f2060030154341015610a74576040517f08c379a0000000000000000000000000000000000000000000000000000000008152600401610a6b906145b8565b60405180910390fd5b3460045f8381526020019081526020015f206003018190555050565b60025f9054906101000a900473ffffffffffffffffffffffffffffffffffffffff1673ffffffffffffffffffffffffffffffffffffffff163373ffffffffffffffffffffffffffffffffffffffff1614610b1f576040517f08c379a0000000000000000000000000000000000000000000000000000000008152600401610b169061452a565b60405180910390fd5b60036005811115610b3357610b3261393c565b5b610b3c82613343565b6005811115610b4e57610b4d61393c565b5b03610b8e576040517f08c379a0000000000000000000000000000000000000000000000000000000008152600401610b8590614646565b60405180910390fd5b600360045f8381526020019081526020015f2060060160146101000a81548160ff02191690836005811115610bc657610bc561393c565b5b02179055505f60045f8381526020019081526020015f206006015f6101000a81548173ffffffffffffffffffffffffffffffffffffffff021916908373ffffffffffffffffffffffffffffffffffffffff160217905550807fac741f39298ee393c5b4c9e9116c20e4ea7ad1c1d04770cdb296dcab16073db660405160405180910390a250565b610c556135db565b610c5e82613185565b610c9d576040517f08c379a0000000000000000000000000000000000000000000000000000000008152600401610c94906142b0565b60405180910390fd5b60035f8373ffffffffffffffffffffffffffffffffffffffff1673ffffffffffffffffffffffffffffffffffffffff1681526020019081526020015f206040518060400160405290815f82015f9054906101000a900473ffffffffffffffffffffffffffffffffffffffff1673ffffffffffffffffffffffffffffffffffffffff1673ffffffffffffffffffffffffffffffffffffffff168152602001600182018054610d4990614691565b80601f0160208091040260200160405190810160405280929190818152602001828054610d7590614691565b8015610dc05780601f10610d9757610100808354040283529160200191610dc0565b820191905f5260205f20905b815481529060010190602001808311610da357829003601f168201915b5050505050815250509050919050565b610dd861360a565b610de18261321b565b610e20576040517f08c379a0000000000000000000000000000000000000000000000000000000008152600401610e1790614318565b60405180910390fd5b60055f8381526020019081526020015f206040518060c00160405290815f8201548152602001600182015f9054906101000a900473ffffffffffffffffffffffffffffffffffffffff1673ffffffffffffffffffffffffffffffffffffffff1673ffffffffffffffffffffffffffffffffffffffff168152602001600282015481526020016003820154815260200160048201548152602001600582015f9054906101000a900460ff166003811115610edc57610edb61393c565b5b6003811115610eee57610eed61393c565b5b815250509050919050565b60605f80610f065f6133b5565b90505f600190505b818111610f83575f6005811115610f2857610f2761393c565b5b60045f8381526020019081526020015f2060060160149054906101000a900460ff166005811115610f5c57610f5b61393c565b5b03610f70578280610f6c906146ee565b9350505b8080610f7b906146ee565b915050610f0e565b505f8267ffffffffffffffff811115610f9f57610f9e614735565b5b604051908082528060200260200182016040528015610fd857816020015b610fc5613662565b815260200190600190039081610fbd5790505b5090505f92505f600190505b828111611273575f6005811115610ffe57610ffd61393c565b5b60045f8381526020019081526020015f2060060160149054906101000a900460ff1660058111156110325761103161393c565b5b036112605760045f8281526020019081526020015f20604051806101a00160405290815f820154815260200160018201805461106d90614691565b80601f016020809104026020016040519081016040528092919081815260200182805461109990614691565b80156110e45780601f106110bb576101008083540402835291602001916110e4565b820191905f5260205f20905b8154815290600101906020018083116110c757829003601f168201915b5050505050815260200160028201548152602001600382015481526020016004820154815260200160058201548152602001600682015f9054906101000a900473ffffffffffffffffffffffffffffffffffffffff1673ffffffffffffffffffffffffffffffffffffffff1673ffffffffffffffffffffffffffffffffffffffff1681526020016006820160149054906101000a900460ff16600581111561118f5761118e61393c565b5b60058111156111a1576111a061393c565b5b8152602001600782018054806020026020016040519081016040528092919081815260200182805480156111f257602002820191905f5260205f20905b8154815260200190600101908083116111de575b50505050508152602001600882015f9054906101000a900460ff1615151515815260200160098201548152602001600a8201548152602001600b8201548152505082858151811061124657611245614762565b5b6020026020010181905250838061125c906146ee565b9450505b808061126b906146ee565b915050610fe4565b5080935050505090565b611286816133c1565b6112c5576040517f08c379a00000000000000000000000000000000000000000000000000000000081526004016112bc906147d9565b60405180910390fd5b6112ce816132ab565b61130d576040517f08c379a000000000000000000000000000000000000000000000000000000000815260040161130490614841565b60405180910390fd5b61131681611e97565b15611356576040517f08c379a000000000000000000000000000000000000000000000000000000000815260040161134d906148cf565b60405180910390fd5b61136060016133e0565b5f61136b60016133b5565b90506040518060c001604052808281526020013373ffffffffffffffffffffffffffffffffffffffff1681526020018581526020018481526020018381526020015f60038111156113bf576113be61393c565b5b81525060055f8381526020019081526020015f205f820151815f01556020820151816001015f6101000a81548173ffffffffffffffffffffffffffffffffffffffff021916908373ffffffffffffffffffffffffffffffffffffffff16021790555060408201518160020155606082015181600301556080820151816004015560a0820151816005015f6101000a81548160ff021916908360038111156114695761146861393c565b5b02179055509050505f60045f8481526020019081526020015f2090508060070182908060018154018082558091505060019003905f5260205f20015f909190919091505582827fcdc10c00e9cccd871fee68b6389bcebf0975335bb62412f2e9175083d007629487876040516114e09291906148ed565b60405180910390a35050505050565b60025f9054906101000a900473ffffffffffffffffffffffffffffffffffffffff1673ffffffffffffffffffffffffffffffffffffffff163373ffffffffffffffffffffffffffffffffffffffff161461157e576040517f08c379a00000000000000000000000000000000000000000000000000000000081526004016115759061452a565b60405180910390fd5b6115878161321b565b6115c6576040517f08c379a00000000000000000000000000000000000000000000000000000000081526004016115bd9061495e565b60405180910390fd5b5f60055f8381526020019081526020015f206004015490506115e7816133c1565b611626576040517f08c379a000000000000000000000000000000000000000000000000000000000815260040161161d906149c6565b60405180910390fd5b6001600581111561163a5761163961393c565b5b61164382613343565b60058111156116555761165461393c565b5b14611695576040517f08c379a000000000000000000000000000000000000000000000000000000000815260040161168c90614a2e565b60405180910390fd5b5f60038111156116a8576116a761393c565b5b6116b18361323a565b60038111156116c3576116c261393c565b5b14611703576040517f08c379a00000000000000000000000000000000000000000000000000000000081526004016116fa90614abc565b60405180910390fd5b5f73ffffffffffffffffffffffffffffffffffffffff1660045f8381526020019081526020015f206006015f9054906101000a900473ffffffffffffffffffffffffffffffffffffffff1673ffffffffffffffffffffffffffffffffffffffff16146117a4576040517f08c379a000000000000000000000000000000000000000000000000000000000815260040161179b90614b4a565b60405180910390fd5b6117ae82826127a9565b6117ed576040517f08c379a00000000000000000000000000000000000000000000000000000000081526004016117e490614bd8565b60405180910390fd5b600160055f8481526020019081526020015f206005015f6101000a81548160ff021916908360038111156118245761182361393c565b5b021790555060055f8381526020019081526020015f206001015f9054906101000a900473ffffffffffffffffffffffffffffffffffffffff1660045f8381526020019081526020015f206006015f6101000a81548173ffffffffffffffffffffffffffffffffffffffff021916908373ffffffffffffffffffffffffffffffffffffffff16021790555060055f8381526020019081526020015f206002015460045f8381526020019081526020015f206003018190555060055f8381526020019081526020015f206003015460045f8381526020019081526020015f2060090181905550600260045f8381526020019081526020015f2060060160146101000a81548160ff021916908360058111156119405761193f61393c565b5b021790555060055f8381526020019081526020015f206001015f9054906101000a900473ffffffffffffffffffffffffffffffffffffffff1673ffffffffffffffffffffffffffffffffffffffff1660055f8481526020019081526020015f205f01547f0dd7baccaa891b93bde35f70885d05aef1b37a377363407a9349d957565b3b0360055f8681526020019081526020015f20600201546040516119e691906141c8565b60405180910390a35050565b6005602052805f5260405f205f91509050805f015490806001015f9054906101000a900473ffffffffffffffffffffffffffffffffffffffff1690806002015490806003015490806004015490806005015f9054906101000a900460ff16905086565b6004602052805f5260405f205f91509050805f015490806001018054611a7a90614691565b80601f0160208091040260200160405190810160405280929190818152602001828054611aa690614691565b8015611af15780601f10611ac857610100808354040283529160200191611af1565b820191905f5260205f20905b815481529060010190602001808311611ad457829003601f168201915b505050505090806002015490806003015490806004015490806005015490806006015f9054906101000a900473ffffffffffffffffffffffffffffffffffffffff16908060060160149054906101000a900460ff1690806008015f9054906101000a900460ff169080600901549080600a01549080600b015490508c565b60025f9054906101000a900473ffffffffffffffffffffffffffffffffffffffff1673ffffffffffffffffffffffffffffffffffffffff163373ffffffffffffffffffffffffffffffffffffffff1614611bfe576040517f08c379a0000000000000000000000000000000000000000000000000000000008152600401611bf59061452a565b60405180910390fd5b611c075f6133e0565b5f611c115f6133b5565b9050604051806101a0016040528082815260200187878080601f0160208091040260200160405190810160405280939291908181526020018383808284375f81840152601f19601f8201169050808301925050505050505081526020018581526020015f81526020018481526020018381526020015f73ffffffffffffffffffffffffffffffffffffffff1681526020015f6005811115611cb557611cb461393c565b5b81526020015f67ffffffffffffffff811115611cd457611cd3614735565b5b604051908082528060200260200182016040528015611d025781602001602082028036833780820191505090505b5081526020015f151581526020015f81526020015f81526020015f81525060045f8381526020019081526020015f205f820151815f01556020820151816001019081611d4e9190614d93565b5060408201518160020155606082015181600301556080820151816004015560a0820151816005015560c0820151816006015f6101000a81548173ffffffffffffffffffffffffffffffffffffffff021916908373ffffffffffffffffffffffffffffffffffffffff16021790555060e08201518160060160146101000a81548160ff02191690836005811115611de857611de761393c565b5b0217905550610100820151816007019080519060200190611e0a9291906136e9565b50610120820151816008015f6101000a81548160ff021916908315150217905550610140820151816009015561016082015181600a015561018082015181600b0155905050807fd89ecd7aaa8da2a25ba13412e220fed2879360d6a8eab2b63bc88d882f75881f8787878787604051611e87959493929190614e9c565b60405180910390a2505050505050565b5f611ea133613185565b611ee0576040517f08c379a0000000000000000000000000000000000000000000000000000000008152600401611ed7906142b0565b60405180910390fd5b611ee9826133c1565b611f28576040517f08c379a0000000000000000000000000000000000000000000000000000000008152600401611f1f906147d9565b60405180910390fd5b5f611f32836133f4565b805480602002602001604051908101604052809291908181526020018280548015611f7a57602002820191905f5260205f20905b815481526020019060010190808311611f66575b505050505090505f5b8151811015612030575f828281518110611fa057611f9f614762565b5b602002602001015190503373ffffffffffffffffffffffffffffffffffffffff1660055f8381526020019081526020015f206001015f9054906101000a900473ffffffffffffffffffffffffffffffffffffffff1673ffffffffffffffffffffffffffffffffffffffff160361201c5760019350505050612036565b508080612028906146ee565b915050611f83565b505f9150505b919050565b612043613662565b61204c826133c1565b61208b576040517f08c379a0000000000000000000000000000000000000000000000000000000008152600401612082906147d9565b60405180910390fd5b60045f8381526020019081526020015f20604051806101a00160405290815f82015481526020016001820180546120c190614691565b80601f01602080910402602001604051908101604052809291908181526020018280546120ed90614691565b80156121385780601f1061210f57610100808354040283529160200191612138565b820191905f5260205f20905b81548152906001019060200180831161211b57829003601f168201915b5050505050815260200160028201548152602001600382015481526020016004820154815260200160058201548152602001600682015f9054906101000a900473ffffffffffffffffffffffffffffffffffffffff1673ffffffffffffffffffffffffffffffffffffffff1673ffffffffffffffffffffffffffffffffffffffff1681526020016006820160149054906101000a900460ff1660058111156121e3576121e261393c565b5b60058111156121f5576121f461393c565b5b81526020016007820180548060200260200160405190810160405280929190818152602001828054801561224657602002820191905f5260205f20905b815481526020019060010190808311612232575b50505050508152602001600882015f9054906101000a900460ff1615151515815260200160098201548152602001600a8201548152602001600b820154815250509050919050565b61229733613185565b156122d7576040517f08c379a00000000000000000000000000000000000000000000000000000000081526004016122ce90614f32565b60405180910390fd5b60405180604001604052803373ffffffffffffffffffffffffffffffffffffffff16815260200183838080601f0160208091040260200160405190810160405280939291908181526020018383808284375f81840152601f19601f8201169050808301925050505050505081525060035f3373ffffffffffffffffffffffffffffffffffffffff1673ffffffffffffffffffffffffffffffffffffffff1681526020019081526020015f205f820151815f015f6101000a81548173ffffffffffffffffffffffffffffffffffffffff021916908373ffffffffffffffffffffffffffffffffffffffff16021790555060208201518160010190816123db9190614d93565b509050503373ffffffffffffffffffffffffffffffffffffffff167f3fca97b0a9a68341d82a7abfd38c3bb25ffa4e2f65c768140668f02290f3444360035f3373ffffffffffffffffffffffffffffffffffffffff1673ffffffffffffffffffffffffffffffffffffffff1681526020019081526020015f206001016040516124649190614fd1565b60405180910390a25050565b5f47905090565b60025f9054906101000a900473ffffffffffffffffffffffffffffffffffffffff1673ffffffffffffffffffffffffffffffffffffffff163373ffffffffffffffffffffffffffffffffffffffff1614612506576040517f08c379a00000000000000000000000000000000000000000000000000000000081526004016124fd9061452a565b60405180910390fd5b61250f816133c1565b61254e576040517f08c379a0000000000000000000000000000000000000000000000000000000008152600401612545906149c6565b60405180910390fd5b6005808111156125615761256061393c565b5b61256a82613343565b600581111561257c5761257b61393c565b5b146125bc576040517f08c379a00000000000000000000000000000000000000000000000000000000081526004016125b390615061565b60405180910390fd5b5f60045f8381526020019081526020015f2090505f1515816008015f9054906101000a900460ff16151514612626576040517f08c379a000000000000000000000000000000000000000000000000000000000815260040161261d906150c9565b60405180910390fd5b612652816006015f9054906101000a900473ffffffffffffffffffffffffffffffffffffffff16613185565b612691576040517f08c379a0000000000000000000000000000000000000000000000000000000008152600401612688906142b0565b60405180910390fd5b5f61269b83612a35565b9050806126a6612470565b10156126b0575f80fd5b816006015f9054906101000a900473ffffffffffffffffffffffffffffffffffffffff1673ffffffffffffffffffffffffffffffffffffffff166108fc8290811502906040515f60405180830381858888f19350505050158015612716573d5f803e3d5ffd5b506001826008015f6101000a81548160ff021916908315150217905550816006015f9054906101000a900473ffffffffffffffffffffffffffffffffffffffff1673ffffffffffffffffffffffffffffffffffffffff167f60bbcfeb35cb1ab893df37e7a3b8a99efd65b5af5688cf7071eeefdb1624b9578260405161279c91906141c8565b60405180910390a2505050565b5f6127b38361321b565b6127f2576040517f08c379a00000000000000000000000000000000000000000000000000000000081526004016127e990614318565b60405180910390fd5b6127fb826133c1565b61283a576040517f08c379a0000000000000000000000000000000000000000000000000000000008152600401612831906147d9565b60405180910390fd5b5f5b60045f8481526020019081526020015f20600701805490508110156128ad578360045f8581526020019081526020015f20600701828154811061288257612881614762565b5b905f5260205f2001540361289a5760019150506128b2565b80806128a5906146ee565b91505061283c565b505f90505b92915050565b60025f9054906101000a900473ffffffffffffffffffffffffffffffffffffffff1673ffffffffffffffffffffffffffffffffffffffff163373ffffffffffffffffffffffffffffffffffffffff1614612947576040517f08c379a000000000000000000000000000000000000000000000000000000000815260040161293e9061452a565b60405180910390fd5b612950816133c1565b61298f576040517f08c379a0000000000000000000000000000000000000000000000000000000008152600401612986906147d9565b60405180910390fd5b612999815f613458565b5f67ffffffffffffffff8111156129b3576129b2614735565b5b6040519080825280602002602001820160405280156129e15781602001602082028036833780820191505090505b5060045f8381526020019081526020015f206007019080519060200190612a099291906136e9565b5050565b5f60025f9054906101000a900473ffffffffffffffffffffffffffffffffffffffff16905090565b5f612a3f826133c1565b612a7e576040517f08c379a0000000000000000000000000000000000000000000000000000000008152600401612a75906147d9565b60405180910390fd5b600580811115612a9157612a9061393c565b5b612a9a83613343565b6005811115612aac57612aab61393c565b5b14612aec576040517f08c379a0000000000000000000000000000000000000000000000000000000008152600401612ae390615061565b60405180910390fd5b5f60045f8481526020019081526020015f2090505f6201518082600a015483600b0154612b1991906150e7565b612b239190615147565b90505f826009015482612b3691906150e7565b90505f8111612b4e5782600301549350505050612be6565b5f6103e88285600401548660030154612b679190615177565b612b719190615177565b612b7b9190615147565b9050606484600501548560030154612b939190615177565b612b9d9190615147565b811115612bcf57606484600501548560030154612bba9190615177565b612bc49190615147565b945050505050612be6565b808460030154612bdf91906150e7565b9450505050505b919050565b60025f9054906101000a900473ffffffffffffffffffffffffffffffffffffffff1681565b60025f9054906101000a900473ffffffffffffffffffffffffffffffffffffffff1673ffffffffffffffffffffffffffffffffffffffff163373ffffffffffffffffffffffffffffffffffffffff1614612c9f576040517f08c379a0000000000000000000000000000000000000000000000000000000008152600401612c969061452a565b60405180910390fd5b612ca8816133c1565b612ce7576040517f08c379a0000000000000000000000000000000000000000000000000000000008152600401612cde906147d9565b60405180910390fd5b60026005811115612cfb57612cfa61393c565b5b612d0482613343565b6005811115612d1657612d1561393c565b5b14612d56576040517f08c379a0000000000000000000000000000000000000000000000000000000008152600401612d4d90615202565b60405180910390fd5b612d61816004613458565b4260045f8381526020019081526020015f20600a018190555050565b60025f9054906101000a900473ffffffffffffffffffffffffffffffffffffffff1673ffffffffffffffffffffffffffffffffffffffff163373ffffffffffffffffffffffffffffffffffffffff1614612e0c576040517f08c379a0000000000000000000000000000000000000000000000000000000008152600401612e039061452a565b60405180910390fd5b612e15816133c1565b612e54576040517f08c379a0000000000000000000000000000000000000000000000000000000008152600401612e4b906147d9565b60405180910390fd5b5f6005811115612e6757612e6661393c565b5b612e7082613343565b6005811115612e8257612e8161393c565b5b14612ec2576040517f08c379a0000000000000000000000000000000000000000000000000000000008152600401612eb99061526a565b60405180910390fd5b60045f8281526020019081526020015f20600201544211612f18576040517f08c379a0000000000000000000000000000000000000000000000000000000008152600401612f0f906152d2565b60405180910390fd5b612f23816001613458565b807fd79ef0d7f68df3d827e7c4b6a13ec4570e9a30515c4717bbaa647da58ca68be160405160405180910390a250565b60025f9054906101000a900473ffffffffffffffffffffffffffffffffffffffff1673ffffffffffffffffffffffffffffffffffffffff163373ffffffffffffffffffffffffffffffffffffffff1614612fe2576040517f08c379a0000000000000000000000000000000000000000000000000000000008152600401612fd99061452a565b60405180910390fd5b612feb816133c1565b61302a576040517f08c379a0000000000000000000000000000000000000000000000000000000008152600401613021906147d9565b60405180910390fd5b6004600581111561303e5761303d61393c565b5b61304782613343565b60058111156130595761305861393c565b5b14613099576040517f08c379a000000000000000000000000000000000000000000000000000000000815260040161309090615360565b60405180910390fd5b6130a4816005613458565b4260045f8381526020019081526020015f20600b018190555050565b6003602052805f5260405f205f91509050805f015f9054906101000a900473ffffffffffffffffffffffffffffffffffffffff169080600101805461310490614691565b80601f016020809104026020016040519081016040528092919081815260200182805461313090614691565b801561317b5780601f106131525761010080835404028352916020019161317b565b820191905f5260205f20905b81548152906001019060200180831161315e57829003601f168201915b5050505050905082565b5f8073ffffffffffffffffffffffffffffffffffffffff1660035f8473ffffffffffffffffffffffffffffffffffffffff1673ffffffffffffffffffffffffffffffffffffffff1681526020019081526020015f205f015f9054906101000a900473ffffffffffffffffffffffffffffffffffffffff1673ffffffffffffffffffffffffffffffffffffffff1614159050919050565b5f8060055f8481526020019081526020015f205f015414159050919050565b5f6132448261321b565b613283576040517f08c379a000000000000000000000000000000000000000000000000000000000815260040161327a90614318565b60405180910390fd5b60055f8381526020019081526020015f206005015f9054906101000a900460ff169050919050565b5f6132b5826133c1565b6132f4576040517f08c379a00000000000000000000000000000000000000000000000000000000081526004016132eb906147d9565b60405180910390fd5b5f60058111156133075761330661393c565b5b60045f8481526020019081526020015f2060060160149054906101000a900460ff16600581111561333b5761333a61393c565b5b149050919050565b5f61334d826133c1565b61338c576040517f08c379a0000000000000000000000000000000000000000000000000000000008152600401613383906147d9565b60405180910390fd5b60045f8381526020019081526020015f2060060160149054906101000a900460ff169050919050565b5f815f01549050919050565b5f8060045f8481526020019081526020015f205f015414159050919050565b6001815f015f828254019250508190555050565b5f6133fe826133c1565b61343d576040517f08c379a0000000000000000000000000000000000000000000000000000000008152600401613434906147d9565b60405180910390fd5b60045f8381526020019081526020015f206007019050919050565b60025f9054906101000a900473ffffffffffffffffffffffffffffffffffffffff1673ffffffffffffffffffffffffffffffffffffffff163373ffffffffffffffffffffffffffffffffffffffff16146134e7576040517f08c379a00000000000000000000000000000000000000000000000000000000081526004016134de9061452a565b60405180910390fd5b6134f0826133c1565b61352f576040517f08c379a0000000000000000000000000000000000000000000000000000000008152600401613526906147d9565b60405180910390fd5b8060045f8481526020019081526020015f2060060160146101000a81548160ff021916908360058111156135665761356561393c565b5b021790555060045f8381526020019081526020015f205f01547fdcba20243cece5ee0f3fd42c582f8201538d034183adfefbc2e6bf21de8fd37660045f8581526020019081526020015f2060060160149054906101000a900460ff166040516135cf919061537e565b60405180910390a25050565b60405180604001604052805f73ffffffffffffffffffffffffffffffffffffffff168152602001606081525090565b6040518060c001604052805f81526020015f73ffffffffffffffffffffffffffffffffffffffff1681526020015f81526020015f81526020015f81526020015f600381111561365c5761365b61393c565b5b81525090565b604051806101a001604052805f8152602001606081526020015f81526020015f81526020015f81526020015f81526020015f73ffffffffffffffffffffffffffffffffffffffff1681526020015f60058111156136c2576136c161393c565b5b8152602001606081526020015f151581526020015f81526020015f81526020015f81525090565b828054828255905f5260205f20908101928215613723579160200282015b82811115613722578251825591602001919060010190613707565b5b5090506137309190613734565b5090565b5b8082111561374b575f815f905550600101613735565b5090565b5f80fd5b5f80fd5b5f819050919050565b61376981613757565b8114613773575f80fd5b50565b5f8135905061378481613760565b92915050565b5f6020828403121561379f5761379e61374f565b5b5f6137ac84828501613776565b91505092915050565b5f73ffffffffffffffffffffffffffffffffffffffff82169050919050565b5f6137de826137b5565b9050919050565b6137ee816137d4565b81146137f8575f80fd5b50565b5f81359050613809816137e5565b92915050565b5f602082840312156138245761382361374f565b5b5f613831848285016137fb565b91505092915050565b613843816137d4565b82525050565b5f81519050919050565b5f82825260208201905092915050565b5f5b83811015613880578082015181840152602081019050613865565b5f8484015250505050565b5f601f19601f8301169050919050565b5f6138a582613849565b6138af8185613853565b93506138bf818560208601613863565b6138c88161388b565b840191505092915050565b5f604083015f8301516138e85f86018261383a565b5060208301518482036020860152613900828261389b565b9150508091505092915050565b5f6020820190508181035f83015261392581846138d3565b905092915050565b61393681613757565b82525050565b7f4e487b71000000000000000000000000000000000000000000000000000000005f52602160045260245ffd5b6004811061397a5761397961393c565b5b50565b5f81905061398a82613969565b919050565b5f6139998261397d565b9050919050565b6139a98161398f565b82525050565b60c082015f8201516139c35f85018261392d565b5060208201516139d6602085018261383a565b5060408201516139e9604085018261392d565b5060608201516139fc606085018261392d565b506080820151613a0f608085018261392d565b5060a0820151613a2260a08501826139a0565b50505050565b5f60c082019050613a3b5f8301846139af565b92915050565b5f81519050919050565b5f82825260208201905092915050565b5f819050602082019050919050565b60068110613a7b57613a7a61393c565b5b50565b5f819050613a8b82613a6a565b919050565b5f613a9a82613a7e565b9050919050565b613aaa81613a90565b82525050565b5f81519050919050565b5f82825260208201905092915050565b5f819050602082019050919050565b5f613ae4838361392d565b60208301905092915050565b5f602082019050919050565b5f613b0682613ab0565b613b108185613aba565b9350613b1b83613aca565b805f5b83811015613b4b578151613b328882613ad9565b9750613b3d83613af0565b925050600181019050613b1e565b5085935050505092915050565b5f8115159050919050565b613b6c81613b58565b82525050565b5f6101a083015f830151613b885f86018261392d565b5060208301518482036020860152613ba0828261389b565b9150506040830151613bb5604086018261392d565b506060830151613bc8606086018261392d565b506080830151613bdb608086018261392d565b5060a0830151613bee60a086018261392d565b5060c0830151613c0160c086018261383a565b5060e0830151613c1460e0860182613aa1565b50610100830151848203610100860152613c2e8282613afc565b915050610120830151613c45610120860182613b63565b50610140830151613c5a61014086018261392d565b50610160830151613c6f61016086018261392d565b50610180830151613c8461018086018261392d565b508091505092915050565b5f613c9a8383613b72565b905092915050565b5f602082019050919050565b5f613cb882613a41565b613cc28185613a4b565b935083602082028501613cd485613a5b565b805f5b85811015613d0f5784840389528151613cf08582613c8f565b9450613cfb83613ca2565b925060208a01995050600181019050613cd7565b50829750879550505050505092915050565b5f6020820190508181035f830152613d398184613cae565b905092915050565b5f805f60608486031215613d5857613d5761374f565b5b5f613d6586828701613776565b9350506020613d7686828701613776565b9250506040613d8786828701613776565b9150509250925092565b613d9a81613757565b82525050565b613da9816137d4565b82525050565b613db88161398f565b82525050565b5f60c082019050613dd15f830189613d91565b613dde6020830188613da0565b613deb6040830187613d91565b613df86060830186613d91565b613e056080830185613d91565b613e1260a0830184613daf565b979650505050505050565b5f82825260208201905092915050565b5f613e3782613849565b613e418185613e1d565b9350613e51818560208601613863565b613e5a8161388b565b840191505092915050565b613e6e81613a90565b82525050565b613e7d81613b58565b82525050565b5f61018082019050613e975f83018f613d91565b8181036020830152613ea9818e613e2d565b9050613eb8604083018d613d91565b613ec5606083018c613d91565b613ed2608083018b613d91565b613edf60a083018a613d91565b613eec60c0830189613da0565b613ef960e0830188613e65565b613f07610100830187613e74565b613f15610120830186613d91565b613f23610140830185613d91565b613f31610160830184613d91565b9d9c50505050505050505050505050565b5f80fd5b5f80fd5b5f80fd5b5f8083601f840112613f6357613f62613f42565b5b8235905067ffffffffffffffff811115613f8057613f7f613f46565b5b602083019150836001820283011115613f9c57613f9b613f4a565b5b9250929050565b5f805f805f60808688031215613fbc57613fbb61374f565b5b5f86013567ffffffffffffffff811115613fd957613fd8613753565b5b613fe588828901613f4e565b95509550506020613ff888828901613776565b935050604061400988828901613776565b925050606061401a88828901613776565b9150509295509295909350565b5f60208201905061403a5f830184613e74565b92915050565b5f6101a083015f8301516140565f86018261392d565b506020830151848203602086015261406e828261389b565b9150506040830151614083604086018261392d565b506060830151614096606086018261392d565b5060808301516140a9608086018261392d565b5060a08301516140bc60a086018261392d565b5060c08301516140cf60c086018261383a565b5060e08301516140e260e0860182613aa1565b506101008301518482036101008601526140fc8282613afc565b915050610120830151614113610120860182613b63565b5061014083015161412861014086018261392d565b5061016083015161413d61016086018261392d565b5061018083015161415261018086018261392d565b508091505092915050565b5f6020820190508181035f8301526141758184614040565b905092915050565b5f80602083850312156141935761419261374f565b5b5f83013567ffffffffffffffff8111156141b0576141af613753565b5b6141bc85828601613f4e565b92509250509250929050565b5f6020820190506141db5f830184613d91565b92915050565b5f80604083850312156141f7576141f661374f565b5b5f61420485828601613776565b925050602061421585828601613776565b9150509250929050565b5f6020820190506142325f830184613da0565b92915050565b5f60408201905061424b5f830185613da0565b818103602083015261425d8184613e2d565b90509392505050565b7f436f6e74726163746f7220646f6573206e6f742065786973742e0000000000005f82015250565b5f61429a601a83613e1d565b91506142a582614266565b602082019050919050565b5f6020820190508181035f8301526142c78161428e565b9050919050565b7f42696420646f6573206e6f742065786973742e000000000000000000000000005f82015250565b5f614302601383613e1d565b915061430d826142ce565b602082019050919050565b5f6020820190508181035f83015261432f816142f6565b9050919050565b7f4f6e6c79207375626d697474656420626964732063616e2062652077697468645f8201527f7261776e00000000000000000000000000000000000000000000000000000000602082015250565b5f614390602483613e1d565b915061439b82614336565b604082019050919050565b5f6020820190508181035f8301526143bd81614384565b9050919050565b7f596f752063616e206f6e6c7920776974686472617720626964732066726f6d205f8201527f6f70656e20636f6e7472616374732e0000000000000000000000000000000000602082015250565b5f61441e602f83613e1d565b9150614429826143c4565b604082019050919050565b5f6020820190508181035f83015261444b81614412565b9050919050565b7f4f6e6c79206269646465722063616e20776974686472617720746865206269645f82015250565b5f614486602083613e1d565b915061449182614452565b602082019050919050565b5f6020820190508181035f8301526144b38161447a565b9050919050565b7f4f6e6c7920746865206f776e65722063616e2063616c6c20746869732066756e5f8201527f6374696f6e2e0000000000000000000000000000000000000000000000000000602082015250565b5f614514602683613e1d565b915061451f826144ba565b604082019050919050565b5f6020820190508181035f83015261454181614508565b9050919050565b7f416d6f756e74206d75737420626520657175616c20746f206f722067726561745f8201527f6572207468616e20626964416d6f756e742e0000000000000000000000000000602082015250565b5f6145a2603283613e1d565b91506145ad82614548565b604082019050919050565b5f6020820190508181035f8301526145cf81614596565b9050919050565b7f436f6e74726163742068617320616c7265616479206265656e2063616e63656c5f8201527f65642e0000000000000000000000000000000000000000000000000000000000602082015250565b5f614630602383613e1d565b915061463b826145d6565b604082019050919050565b5f6020820190508181035f83015261465d81614624565b9050919050565b7f4e487b71000000000000000000000000000000000000000000000000000000005f52602260045260245ffd5b5f60028204905060018216806146a857607f821691505b6020821081036146bb576146ba614664565b5b50919050565b7f4e487b71000000000000000000000000000000000000000000000000000000005f52601160045260245ffd5b5f6146f882613757565b91507fffffffffffffffffffffffffffffffffffffffffffffffffffffffffffffffff820361472a576147296146c1565b5b600182019050919050565b7f4e487b71000000000000000000000000000000000000000000000000000000005f52604160045260245ffd5b7f4e487b71000000000000000000000000000000000000000000000000000000005f52603260045260245ffd5b7f436f6e747261637420646f6573206e6f742065786973742e00000000000000005f82015250565b5f6147c3601883613e1d565b91506147ce8261478f565b602082019050919050565b5f6020820190508181035f8301526147f0816147b7565b9050919050565b7f436f6e7472616374206973206e6f74206f70656e2e00000000000000000000005f82015250565b5f61482b601583613e1d565b9150614836826147f7565b602082019050919050565b5f6020820190508181035f8301526148588161481f565b9050919050565b7f4f6e6c79206f6e65206269642063616e206265207375626d697474656420746f5f8201527f206120636f6e74726163742062792073616d6520636f6e74726163746f722e00602082015250565b5f6148b9603f83613e1d565b91506148c48261485f565b604082019050919050565b5f6020820190508181035f8301526148e6816148ad565b9050919050565b5f6040820190506149005f830185613d91565b61490d6020830184613d91565b9392505050565b7f42696420646f6573206e6f7420657869737400000000000000000000000000005f82015250565b5f614948601283613e1d565b915061495382614914565b602082019050919050565b5f6020820190508181035f8301526149758161493c565b9050919050565b7f436f6e747261637420646f6573206e6f742065786973740000000000000000005f82015250565b5f6149b0601783613e1d565b91506149bb8261497c565b602082019050919050565b5f6020820190508181035f8301526149dd816149a4565b9050919050565b7f436f6e7472616374206973206e6f7420636c6f7365642e0000000000000000005f82015250565b5f614a18601783613e1d565b9150614a23826149e4565b602082019050919050565b5f6020820190508181035f830152614a4581614a0c565b9050919050565b7f4f6e6c79207375626d697474656420626964732063616e2062652061776172645f8201527f65642e0000000000000000000000000000000000000000000000000000000000602082015250565b5f614aa6602383613e1d565b9150614ab182614a4c565b604082019050919050565b5f6020820190508181035f830152614ad381614a9a565b9050919050565b7f436f6e74726163742068617320616c7265616479206265656e206177617264655f8201527f642e000000000000000000000000000000000000000000000000000000000000602082015250565b5f614b34602283613e1d565b9150614b3f82614ada565b604082019050919050565b5f6020820190508181035f830152614b6181614b28565b9050919050565b7f426964206973206e6f74207375626d697474656420746f207468697320636f6e5f8201527f74726163742e0000000000000000000000000000000000000000000000000000602082015250565b5f614bc2602683613e1d565b9150614bcd82614b68565b604082019050919050565b5f6020820190508181035f830152614bef81614bb6565b9050919050565b5f819050815f5260205f209050919050565b5f6020601f8301049050919050565b5f82821b905092915050565b5f60088302614c527fffffffffffffffffffffffffffffffffffffffffffffffffffffffffffffffff82614c17565b614c5c8683614c17565b95508019841693508086168417925050509392505050565b5f819050919050565b5f614c97614c92614c8d84613757565b614c74565b613757565b9050919050565b5f819050919050565b614cb083614c7d565b614cc4614cbc82614c9e565b848454614c23565b825550505050565b5f90565b614cd8614ccc565b614ce3818484614ca7565b505050565b5b81811015614d0657614cfb5f82614cd0565b600181019050614ce9565b5050565b601f821115614d4b57614d1c81614bf6565b614d2584614c08565b81016020851015614d34578190505b614d48614d4085614c08565b830182614ce8565b50505b505050565b5f82821c905092915050565b5f614d6b5f1984600802614d50565b1980831691505092915050565b5f614d838383614d5c565b9150826002028217905092915050565b614d9c82613849565b67ffffffffffffffff811115614db557614db4614735565b5b614dbf8254614691565b614dca828285614d0a565b5f60209050601f831160018114614dfb575f8415614de9578287015190505b614df38582614d78565b865550614e5a565b601f198416614e0986614bf6565b5f5b82811015614e3057848901518255600182019150602085019450602081019050614e0b565b86831015614e4d5784890151614e49601f891682614d5c565b8355505b6001600288020188555050505b505050505050565b828183375f83830152505050565b5f614e7b8385613e1d565b9350614e88838584614e62565b614e918361388b565b840190509392505050565b5f6080820190508181035f830152614eb5818789614e70565b9050614ec46020830186613d91565b614ed16040830185613d91565b614ede6060830184613d91565b9695505050505050565b7f436f6e74726163746f7220616c7265616479206578697374732e0000000000005f82015250565b5f614f1c601a83613e1d565b9150614f2782614ee8565b602082019050919050565b5f6020820190508181035f830152614f4981614f10565b9050919050565b5f8154614f5c81614691565b614f668186613e1d565b9450600182165f8114614f805760018114614f9657614fc8565b60ff198316865281151560200286019350614fc8565b614f9f85614bf6565b5f5b83811015614fc057815481890152600182019150602081019050614fa1565b808801955050505b50505092915050565b5f6020820190508181035f830152614fe98184614f50565b905092915050565b7f436f6e7472616374206973206e6f74206d61726b656420617320576f726b436f5f8201527f6d706c657465642e000000000000000000000000000000000000000000000000602082015250565b5f61504b602883613e1d565b915061505682614ff1565b604082019050919050565b5f6020820190508181035f8301526150788161503f565b9050919050565b7f436f6e74726163746f7220697320616c726561647920706169642e00000000005f82015250565b5f6150b3601b83613e1d565b91506150be8261507f565b602082019050919050565b5f6020820190508181035f8301526150e0816150a7565b9050919050565b5f6150f182613757565b91506150fc83613757565b9250828203905081811115615114576151136146c1565b5b92915050565b7f4e487b71000000000000000000000000000000000000000000000000000000005f52601260045260245ffd5b5f61515182613757565b915061515c83613757565b92508261516c5761516b61511a565b5b828204905092915050565b5f61518182613757565b915061518c83613757565b925082820261519a81613757565b915082820484148315176151b1576151b06146c1565b5b5092915050565b7f436f6e7472616374206973206e6f7420617761726465642e00000000000000005f82015250565b5f6151ec601883613e1d565b91506151f7826151b8565b602082019050919050565b5f6020820190508181035f830152615219816151e0565b9050919050565b7f436f6e7472616374206973206e6f74206f70656e20666f7220626964732e00005f82015250565b5f615254601e83613e1d565b915061525f82615220565b602082019050919050565b5f6020820190508181035f83015261528181615248565b9050919050565b7f42696420646561646c696e6520686173206e6f7420706173736564207965742e5f82015250565b5f6152bc602083613e1d565b91506152c782615288565b602082019050919050565b5f6020820190508181035f8301526152e9816152b0565b9050919050565b7f436f6e7472616374206973206e6f74206d61726b656420617320496e50726f675f8201527f726573732e000000000000000000000000000000000000000000000000000000602082015250565b5f61534a602583613e1d565b9150615355826152f0565b604082019050919050565b5f6020820190508181035f8301526153778161533e565b9050919050565b5f6020820190506153915f830184613e65565b9291505056fea2646970667358221220a640719266ffdd1b8d3910dba003845f52d732a176b9d20419d232979be90e2f64736f6c63430008140033",
  "immutableReferences": {},
  "source": "// SPDX-License-Identifier: MIT\npragma solidity ^0.8.18;\n\nimport \"@openzeppelin/contracts/utils/Counters.sol\";\nimport \"@openzeppelin/contracts/utils/math/SafeMath.sol\";\n\ncontract Tender {\n    using Counters for Counters.Counter;\n    Counters.Counter private _contractCounter;\n    Counters.Counter private _bidCounter;\n\n    address public owner;\n\n    struct Contractor {\n        address contractor;\n        string name;\n    }\n\n    struct Contract {\n        uint contractId;\n        string description;\n        uint bidDeadline;\n        uint bidAmount;\n        uint dailyPenaltyPerThousand;\n        uint maxPenaltyPercent;\n        address awardedTo;\n        ContractStatus contractStatus;\n        uint[] bidIds;\n        bool isPaid;\n        uint plannedDuration;\n        uint workStarted;\n        uint workCompleted;\n    }\n\n    enum ContractStatus {\n        Open,\n        Closed,\n        Awarded,\n        Canceled,\n        WorkInProgress,\n        WorkCompleted\n    }\n\n    struct Bid {\n        uint bidId;\n        address contractor;\n        uint amount;\n        uint duration;\n        uint contractId;\n        BidStatus bidStatus;\n    }\n\n    enum BidStatus {\n        Submitted,\n        Awarded,\n        Rejected,\n        Withdrawn\n    }\n\n    mapping(address => Contractor) public contractors;\n    mapping(uint => Contract) public contracts;\n    mapping(uint => Bid) public bids;\n\n    modifier onlyOwner() {\n        require(msg.sender == owner, \"Only the owner can call this function.\");\n        _;\n    }\n\n    function setOwner(address _newOwner) external onlyOwner {\n      owner = _newOwner;\n    }\n\n    constructor() {\n        owner = msg.sender;\n    }\n\n    event ContractorAdded(address indexed contractor, string name);\n    event ContractCreated(\n        uint indexed contractId,\n        string description,\n        uint bidDeadline,\n        uint dailyPenaltyPerThousand,\n        uint maxPenaltyPercent\n    );\n    event ContractCanceled(uint indexed contractId);\n    event ContractClosed(uint indexed contractId);\n    event ContractStatusChanged(\n        uint indexed contractId,\n        ContractStatus contractStatus\n    );\n    event BidCreated(\n        uint indexed bidId,\n        uint amount,\n        uint duration,\n        uint indexed contractId\n    );\n    event BidSubmitted(\n        uint indexed bidId,\n        uint indexed contractId,\n        uint amount,\n        uint duration\n    );\n    event BidWithdrawn(uint indexed bidId);\n    event BidAwarded(\n        uint indexed bidId,\n        address indexed contractor,\n        uint bidAmount\n    );\n    event BidderPaid(address indexed contractor, uint paymentAmount);\n\n    function addContractor(string calldata name) external {\n        require(!isContractor(msg.sender), \"Contractor already exists.\");\n        contractors[msg.sender] = Contractor(\n            msg.sender,\n            name\n        );\n\n        emit ContractorAdded(msg.sender, contractors[msg.sender].name);\n    }\n\n    function createContract(\n        string calldata description,\n        uint bidDeadline,\n        uint dailyPenaltyPerThousand,\n        uint maxPenaltyPercent\n    ) external onlyOwner {\n        _contractCounter.increment();\n        uint256 contractId = _contractCounter.current();\n\n        contracts[contractId] = Contract(\n            contractId,\n            description,\n            bidDeadline,\n            0,\n            dailyPenaltyPerThousand,\n            maxPenaltyPercent,\n            address(0),\n            ContractStatus.Open,\n            new uint[](0),\n            false,\n            0,\n            0,\n            0\n        );\n        emit ContractCreated(\n            contractId,\n            description,\n            bidDeadline,\n            dailyPenaltyPerThousand,\n            maxPenaltyPercent\n        );\n    }\n\n    function cancelContract(uint contractId) public onlyOwner {\n        require(\n            getContractStatus(contractId) != ContractStatus.Canceled,\n            \"Contract has already been canceled.\"\n        );\n\n        contracts[contractId].contractStatus = ContractStatus.Canceled;\n        contracts[contractId].awardedTo = address(0);\n\n        emit ContractCanceled(contractId);\n    }\n\n    function closeContract(uint contractId) public onlyOwner {\n        require(isContract(contractId), \"Contract does not exist.\");\n        require(getContractStatus(contractId) == ContractStatus.Open, \"Contract is not open for bids.\");\n        require(block.timestamp > contracts[contractId].bidDeadline, \"Bid deadline has not passed yet.\");\n\n        changeContractStatus(contractId, ContractStatus.Closed);\n\n        emit ContractClosed(contractId);\n    }\n\n    function submitBid(\n        uint amount,\n        uint duration,\n        uint contractId\n    ) external {\n        require(isContract(contractId), \"Contract does not exist.\");\n        require(isContractOpen(contractId), \"Contract is not open.\");\n        require(\n            !isAlreadyBiddedByContractor(contractId),\n            \"Only one bid can be submitted to a contract by same contractor.\"\n        );\n\n        _bidCounter.increment();\n        uint bidId = _bidCounter.current();\n        bids[bidId] = Bid(\n            bidId,\n            msg.sender,\n            amount,\n            duration,\n            contractId,\n            BidStatus.Submitted\n        );\n\n        Contract storage payingContract = contracts[contractId];\n        payingContract.bidIds.push(bidId);\n\n        emit BidSubmitted(bidId, contractId, amount, duration);\n    }\n\n    function withdrawBid(uint bidId) external {\n        require(isContractor(msg.sender), \"Contractor does not exist.\");\n        require(isBid(bidId), \"Bid does not exist.\");\n        require(getBidStatus(bidId) == BidStatus.Submitted,\n            \"Only submitted bids can be withdrawn\"\n        );\n        require(\n            isContractOpen(bids[bidId].contractId),\n            \"You can only withdraw bids from open contracts.\"\n        );\n        require(\n            bids[bidId].contractor == msg.sender,\n            \"Only bidder can withdraw the bid\"\n        );\n\n        bids[bidId].bidStatus = BidStatus.Withdrawn;\n\n        emit BidWithdrawn(bidId);\n    }\n\n    function awardBid(uint bidId) external onlyOwner {\n        require(isBid(bidId), \"Bid does not exist\");\n        uint contractId = bids[bidId].contractId;\n        require(isContract(contractId), \"Contract does not exist\");\n        require(\n            getContractStatus(contractId) == ContractStatus.Closed,\n            \"Contract is not closed.\"\n        );\n        require(\n            getBidStatus(bidId) == BidStatus.Submitted,\n            \"Only submitted bids can be awarded.\"\n        );\n        require(\n            contracts[contractId].awardedTo == address(0),\n            \"Contract has already been awarded.\"\n        );\n        require(\n            isBidSubmittedToContract(bidId, contractId),\n            \"Bid is not submitted to this contract.\"\n        );\n\n        bids[bidId].bidStatus = BidStatus.Awarded;\n        contracts[contractId].awardedTo = bids[bidId].contractor;\n        contracts[contractId].bidAmount = bids[bidId].amount;\n        contracts[contractId].plannedDuration = bids[bidId].duration;\n        contracts[contractId].contractStatus = ContractStatus.Awarded;\n\n        emit BidAwarded(\n            bids[bidId].bidId,\n            bids[bidId].contractor,\n            bids[bidId].amount\n        );\n    }\n\n    function depositContractAmount(uint contractId) public payable onlyOwner {\n        require(\n            msg.value >= contracts[contractId].bidAmount,\n            \"Amount must be equal to or greater than bidAmount.\"\n        );\n        contracts[contractId].bidAmount = msg.value;\n    }\n\n    function startWorkInContract(uint contractId) external onlyOwner {\n        require(isContract(contractId), \"Contract does not exist.\");\n        require(\n            getContractStatus(contractId) == ContractStatus.Awarded,\n            \"Contract is not awarded.\"\n        );\n\n        changeContractStatus(contractId, ContractStatus.WorkInProgress);\n        contracts[contractId].workStarted = block.timestamp;\n    }\n\n    function completeWorkInContract(uint contractId) external onlyOwner {\n        require(isContract(contractId), \"Contract does not exist.\");\n        require(\n            getContractStatus(contractId) == ContractStatus.WorkInProgress,\n            \"Contract is not marked as InProgress.\"\n        );\n\n        changeContractStatus(contractId, ContractStatus.WorkCompleted);\n        contracts[contractId].workCompleted = block.timestamp;\n    }\n\n    function payAwardedBid(uint contractId) external onlyOwner {\n        require(isContract(contractId), \"Contract does not exist\");\n        require(\n            getContractStatus(contractId) == ContractStatus.WorkCompleted,\n            \"Contract is not marked as WorkCompleted.\"\n        );\n\n        Contract storage payingContract = contracts[contractId];\n        require(payingContract.isPaid == false, \"Contractor is already paid.\");\n        require(\n            isContractor(payingContract.awardedTo),\n            \"Contractor does not exist.\"\n        );\n\n        uint paymentAmount = calculatePayment(contractId);\n        require(getContractBalance() >= paymentAmount);\n        payable(payingContract.awardedTo).transfer(paymentAmount);\n        payingContract.isPaid = true;\n\n        emit BidderPaid(payingContract.awardedTo, paymentAmount);\n    }\n\n    function calculatePayment(uint contractId) public view returns (uint) {\n        require(isContract(contractId), \"Contract does not exist.\");\n        require(\n            getContractStatus(contractId) == ContractStatus.WorkCompleted,\n            \"Contract is not marked as WorkCompleted.\"\n        );\n        Contract storage payingContract = contracts[contractId];\n\n        uint workedDuration = (payingContract.workCompleted -\n            payingContract.workStarted) / 86400;\n\n        uint daysPassed = workedDuration - payingContract.plannedDuration;\n\n        if (daysPassed <= 0) {\n            return payingContract.bidAmount;\n        }\n\n        uint penaltyAmount = (payingContract.bidAmount *\n            payingContract.dailyPenaltyPerThousand *\n            daysPassed) / 1000;\n\n        if (\n            penaltyAmount >\n            (payingContract.bidAmount * payingContract.maxPenaltyPercent) / 100\n        ) {\n            return\n                (payingContract.bidAmount * payingContract.maxPenaltyPercent) /\n                100;\n        }\n\n        return (payingContract.bidAmount - penaltyAmount);\n    }\n\n    function changeContractStatus(\n        uint contractId,\n        ContractStatus contractStatus\n    ) internal onlyOwner {\n        require(isContract(contractId), \"Contract does not exist.\");\n        contracts[contractId].contractStatus = contractStatus;\n\n        emit ContractStatusChanged(\n            contracts[contractId].contractId,\n            contracts[contractId].contractStatus\n        );\n    }\n\n    function getOpenContracts() external view returns(Contract[] memory){\n      uint count = 0;\n      uint length = _contractCounter.current();\n      for(uint i =1; i<=length;i++){\n        if(contracts[i].contractStatus == ContractStatus.Open) {\n          count++;\n        }\n      }\n      Contract[] memory openContracts = new Contract[](count);\n      count = 0;\n      for (uint i=1;i<=length;i++){\n        if(contracts[i].contractStatus == ContractStatus.Open){\n          openContracts[count] = contracts[i];\n          count++;\n        }\n      }\n      return openContracts;\n    }\n\n\n    //FOR TESTING PURPOSES DELETE BEFORE DEPLOYING\n    function resetContract(uint _contractId) external onlyOwner {\n        require(isContract(_contractId), \"Contract does not exist.\");\n        changeContractStatus(_contractId, ContractStatus.Open);\n        contracts[_contractId].bidIds = new uint[](0);\n    }\n\n    // QUERY FUNCTIONS\n\n    function getOwner() external view returns(address){\n      return owner;\n    }\n\n    function getContractor(address contractor) external view returns (Contractor memory) {\n        require(isContractor(contractor), \"Contractor does not exist.\");\n        return contractors[contractor];\n    }  \n\n    function getContract(uint contractId) external view returns (Contract memory) {\n        require(isContract(contractId), \"Contract does not exist.\");\n        return contracts[contractId];\n    }\n\n    function getBid(uint bidId) external view returns (Bid memory) {\n        require(isBid(bidId), \"Bid does not exist.\");\n        return bids[bidId];\n    }\n\n    function getContractStatus(\n        uint contractId\n    ) private view returns (ContractStatus) {\n        require(isContract(contractId), \"Contract does not exist.\");\n        return contracts[contractId].contractStatus;\n    }\n\n    function getBidStatus(uint bidId) private view returns (BidStatus) {\n        require(isBid(bidId), \"Bid does not exist.\");\n        return bids[bidId].bidStatus;\n    }\n\n    function getBidsOfContract(uint contractId) private view returns (uint[] storage) {\n        require(isContract(contractId), \"Contract does not exist.\");\n\n        return contracts[contractId].bidIds;\n    }\n\n    function getContractBalance() public view returns (uint) {\n        return address(this).balance;\n    }\n    \n\n    function isContractor(address contractor) private view returns (bool) {\n        return contractors[contractor].contractor != address(0);\n    }\n\n    function isContract(uint contractId) private view returns (bool) {\n        return contracts[contractId].contractId != 0;\n    }\n\n    function isBid(uint _bidId) private view returns (bool) {\n        return bids[_bidId].bidId != 0;\n    }\n\n    function isContractOpen(uint _contractId) private view returns (bool) {\n        require(isContract(_contractId), \"Contract does not exist.\");\n        return contracts[_contractId].contractStatus == ContractStatus.Open;\n    }\n\n    function isBidSubmittedToContract(\n        uint _bidId,\n        uint _contractId\n    ) public view returns (bool) {\n        require(isBid(_bidId), \"Bid does not exist.\");\n        require(isContract(_contractId), \"Contract does not exist.\");\n        for (uint i = 0; i < contracts[_contractId].bidIds.length; i++) {\n            if (contracts[_contractId].bidIds[i] == _bidId) {\n                return true;\n            }\n        }\n        return false;\n    }\n\n    function isAlreadyBiddedByContractor(\n        uint _contractId\n    ) public view returns (bool) {\n        require(isContractor(msg.sender), \"Contractor does not exist.\");\n        require(isContract(_contractId), \"Contract does not exist.\");\n        uint[] memory bidsOfContract = getBidsOfContract(_contractId);\n        for (uint i = 0; i < bidsOfContract.length; i++) {\n            uint bidId = bidsOfContract[i];\n            if (bids[bidId].contractor == msg.sender) {\n                return true;\n            }\n        }\n        return false;\n    }\n}\n",
  "sourcePath": "C:\\Users\\Turkguven\\Dropbox\\Projects\\BNB-Chain-Practicum\\TenderPlatform\\contracts\\Tender.sol",
  "compiler": {
    "name": "solc",
    "version": "0.8.20+commit.a1b79de6.Emscripten.clang"
  },
  "schemaVersion": "3.4.14",
  "updatedAt": "2023-06-18T12:06:14.108Z",
  "networkType": "ethereum",
  "devdoc": {
    "kind": "dev",
    "methods": {},
    "version": 1
  },
  "userdoc": {
    "kind": "user",
    "methods": {},
    "version": 1
  }
}